:100000000C943E000C945B000C945B000C945B0021
:100010000C945B000C945B000C945B000C94A204A9
:100020000C945B000C945B000C945B000C945B00E4
:100030000C945B000C94CE010C945B000C94AB050B
:100040000C945B000C945B000C945B000C945B00C4
:100050000C945B000C945B000C945B000C945B00B4
:100060000C942A030C945B000C945B000C945B00D2
:100070000C945B000C945B000C945B0011241FBE7D
:10008000CFEFD0E1DEBFCDBF11E0A0E0B1E0E4E50D
:10009000F5E102C005900D92A43AB107D9F711E03D
:1000A000A4EAB1E001C01D92A93CB107E1F70E94AA
:1000B000EC040C94A80A0C94000091B121E030E00B
:1000C00002C0220F331F8A95E2F7822F8095892381
:1000D00081B9EEE7F0E08081282B208380917C00BD
:1000E0008F7780937C0080917C00806480937C007B
:1000F00080917A00846080937A0080917A00826097
:1001000080937A0080917A00816080937A00809158
:100110007A00806880937A00089591B121E030E000
:1001200002C0220F331F8A95E2F7922B91B9EEE7B6
:10013000F0E0808120952823208310927900E8E761
:10014000F0E0108211821082089590917C00907EE0
:1001500090937C0090917C00982B90937C008091F0
:100160007A00806480937A0080917A0086FDFCCFCB
:100170002091780030917900C9010895CF92DF92E3
:10018000EF92FF920F931F937B018C018EEBC82E91
:1001900081E0D82EE092BE01F092BF010093C00131
:1001A0001093C10186EF9FEFC80ED91E6091B60172
:1001B0007091B70180E090E00E944E09A80197017C
:1001C0000E94040A0E942209F601718360831F9134
:1001D0000F91FF90EF90DF90CF900895AF92BF9274
:1001E000CF92DF92EF92FF920F931F93CF93DF9303
:1001F0005B016C016093BA017093BB018093BC01F9
:100200009093BD012091B8013091B90140E050E0D8
:1002100060E070E489E191E00E94860ACA01B901B8
:100220000E944E097B018C0160E070E080E89FE352
:10023000A60195010E94B5089B01AC01C801B70158
:100240000E94040A0E942209E6EBF1E071836083B8
:10025000EF0180E090E00E944E092091BE013091B4
:10026000BF014091C0015091C1010E94040A0E9447
:1002700022097A936A93DF91CF911F910F91FF909A
:10028000EF90DF90CF90BF90AF9008958091B20132
:100290008234B9F0833418F48134C9F505C083344D
:1002A000E9F08434A1F527C022B181E090E000900C
:1002B000B30102C0880F991F0A94E2F7282B22B9D4
:1002C000089525B181E090E00090B30102C0880F4D
:1002D000991F0A94E2F7282B25B9089528B181E0E7
:1002E00090E00090B30102C0880F991F0A94E2F7D2
:1002F000282B28B908952BB181E090E00090B3013C
:1003000002C0880F991F0A94E2F7282B2BB9089591
:100310008091B2018234C1F0833418F48134E9F55C
:1003200005C08334F9F08434C1F52AC022B181E0DC
:1003300090E00090B30102C0880F991F0A94E2F781
:100340008095822382B9089525B181E090E00090E4
:10035000B30102C0880F991F0A94E2F780958223A7
:1003600085B9089528B181E090E00090B30102C002
:10037000880F991F0A94E2F78095822388B908951F
:100380002BB181E090E00090B30102C0880F991F6B
:100390000A94E2F7809582238BB908951F920F92F9
:1003A0000FB60F9211242F933F934F935F936F9348
:1003B0007F938F939F93AF93BF93EF93FF9320917E
:1003C000B0013091B1018091B4019091B5018217D3
:1003D000930718F00E94460126C00E9488012091D0
:1003E000B0013091B1018091B6019091B701281709
:1003F0003907C8F01092B1011092B00180917A00D3
:10040000806480937A006091C3017091C40180E0A0
:1004100090E00E944E096093C5017093C6018093DD
:10042000C7019093C8018091C3019091C4010196C6
:100430009093C4018093C3018091B0019091B10168
:1004400001969093B1018093B001FF91EF91BF911C
:10045000AF919F918F917F916F915F914F913F915C
:100460002F910F900FBE0F901F9018954F925F9293
:100470006F927F928F929F92AF92BF92CF92DF92B4
:10048000EF92FF920F931F9349015A012701380100
:100490008093B2016093B3012093BA013093BB0102
:1004A0004093BC015093BD01E092BE01F092BF01A8
:1004B0000093C0011093C101D092B901C092B8015C
:1004C0008234A9F0833418F4813489F505C083346B
:1004D000C9F0843461F521C021B181E090E002C00F
:1004E000880F991F6A95E2F7282B21B920C024B103
:1004F00081E090E002C0880F991F6A95E2F7282BEF
:1005000024B915C027B181E090E002C0880F991F7F
:100510006A95E2F7282B27B90AC02AB181E090E05A
:1005200002C0880F991F6A95E2F7282B2AB9960115
:1005300040E050E060E070E489E191E00E94860ACA
:10054000CA01B9010E944E097B018C0160E070E094
:1005500080E89FE3A50194010E94B5089B01AC01CE
:10056000C801B7010E94040A0E9422097093B701D2
:100570006093B60180E090E00E944E09A3019201D1
:100580000E94040A0E9422097093B5016093B4018D
:100590001092B1011092B00181E061E0A6010E94C9
:1005A00007061F910F91FF90EF90DF90CF90BF90C3
:1005B000AF909F908F907F906F905F904F90089535
:1005C0009B01AC01E0E0F1E080819181A281B381E7
:1005D000281739074A075B0749F0349681E0E4336E
:1005E000F80791F720E032EC41E050E064E0220FA0
:1005F000331F441F551F6A95D1F760E070E489E10D
:1006000091E00E94860AC901DA010197A109B109A6
:10061000292F3A2F4B2F55270196A11DB11D20934D
:10062000CD0081508093CC0088E18093C9008EE09A
:100630008093CA000895982F8091C80085FFFCCF51
:100640009093CE0008958091C80087FFFCCF8091E1
:10065000CE0008951F920F920FB60F9211248F9320
:100660009F9380917800909179009093A501809359
:10067000A40181E08093C2019F918F910F900FBEE2
:100680000F901F9018951F93182FF8940E945D00EB
:1006900080917A00806280937A0080917B008E7FC7
:1006A00080937B0080917B008D7F80937B00809185
:1006B0007B008B7F80937B0080917A0088608093A1
:1006C0007A00ECE7F0E08081807E80838081812B5E
:1006D000808380917A00806480937A0078941F915F
:1006E0000895F8948AB1887F8AB9809173008068F0
:1006F0008093730080917300806480937300809175
:100700007300806280937300809173008061809396
:1007100073008091680088608093680080913B003E
:10072000886080933B00789408951092A6011092FF
:10073000A7011092A8011092A9011092AB0110928A
:10074000AA011092AD011092AC011092AF0110926B
:10075000AE0181E48093B2011092B3011092B7010F
:100760001092B6011092B1011092B0011092B50131
:100770001092B4011092B9011092B80180E090E09B
:10078000A0E0B0E08093BE019093BF01A093C001B0
:10079000B093C1018093BA019093BB01A093BC01B7
:1007A000B093BD011092C2011092C4011092C30116
:1007B0000895EF92FF920F931F936091AE01709195
:1007C000AF0180E090E00E949A0798E3E92E91E063
:1007D000F92EC7010E943A080CEA11E0F801608185
:1007E000718180E090E00E949A07C7010E943A0858
:1007F000F8013297608171818F0180E090E00E9462
:100800009A078AE3E82E81E0F82EC7010E943A0891
:1008100006501040F8016081718180E090E00E94F4
:100820009A07C7010E943A08F8016081718180E04F
:1008300090E00E944E092AE038E240EA5BE30E9421
:10084000040A20E030E04AE754E40E94040A0E94CF
:1008500022090E949A07C7010E943A08F8016081A4
:10086000718180E090E00E944E0929E835E246E976
:100870005EE30E94040A0E9422090E949A078CE308
:1008800091E00E9492081F910F91FF90EF900895C0
:100890006091BE017091BF018091C0019091C10132
:1008A00020E030E048EC52E40E94040A0E94C707AE
:1008B0008AE391E00E943A086091BA017091BB010D
:1008C0008091BC019091BD010E94C7078AE391E02D
:1008D0000E943A088091230083FF03C08DE391E0DA
:1008E00002C082E491E00E943A088AE391E00E940B
:1008F0003A086091A4017091A50180E090E00E9407
:100900009A078AE391E00E943A086091A4017091ED
:10091000A50180E090E00E944E092AE038E240EA1A
:100920005BE30E94040A20E030E04AE754E40E94BE
:10093000040A0E9422090E949A078CE391E00E9417
:10094000920808951F920F920FB60F9211242F93C1
:100950003F934F935F936F937F938F939F93AF9347
:10096000BF93EF93FF938091290087FD06C060E05D
:1009700070E088EC92E40E94EE008091290086FDF0
:1009800006C060E070E080EA91E40E94EE00809191
:10099000290085FD06C060E070E080E89FE30E94CA
:1009A000EE008091290084FD06C060E070E080E0E8
:1009B0009FE30E94EE00FF91EF91BF91AF919F9155
:1009C0008F917F916F915F914F913F912F910F90F8
:1009D0000FBE0F901F901895CF92DF92EF92FF926B
:1009E0000F931F930E94950360E072EC81E090E00A
:1009F0000E94E00284E00E945D0080917A0088609D
:100A000080937A0080917C00807E80937C0080912E
:100A10007C00846080937C0080912A008F77809393
:100A20002A0086E491E00E9492088091290087FDC7
:100A3000FCCF8091290087FFFCCF0E94950382E4C0
:100A400063E020E030E041E653E40F2EF0E0EF2ECB
:100A5000F0E0FF2EF0E00F2FFFE31F2FF02D70E4EA
:100A6000C72E71E0D72E0E9436026091B8017091B6
:100A7000B90180E090E00E944E0920E030EA4CE8A5
:100A80005BE40E94B5087B018C0124C08091C20107
:100A9000882301F18CE391E00E9492086091C501E6
:100AA0007091C6018091C7019091C801A80197017A
:100AB0000E94040A0E94C7078AE391E00E943A0854
:100AC0006091A4017091A50180E090E00E949A07D6
:100AD0001092C2016091C5017091C6018091C70159
:100AE0009091C801A80197010E94040A20E030E01B
:100AF00040E85FE30E94B10887FDC8CF8DE691E032
:100B00000E9492088ECF8091AA019091AB01CC9760
:100B100070F08091AC019091AD0101969093AD0180
:100B20008093AC011092AB011092AA0108958091BC
:100B3000AC019091AD01CC9768F08091AE0190919D
:100B4000AF0101969093AF018093AE011092AD0179
:100B50001092AC0108951F920F920FB60F921124BC
:100B60002F933F934F935F936F937F938F939F93B5
:100B7000AF93BF93EF93FF938091A6019091A7014C
:100B8000A091A801B091A90189519140A040B04025
:100B900088F01092A6011092A7011092A80110925D
:100BA000A9018091AA019091AB0101969093AB01AC
:100BB0008093AA018091A6019091A701A091A8011C
:100BC000B091A9010196A11DB11D8093A60190933A
:100BD000A701A093A801B093A9010E948305FF91EA
:100BE000EF91BF91AF919F918F917F916F915F91A5
:100BF0004F913F912F910F900FBE0F901F9018951E
:100C000081E060E040E050E00E9407060895982FE0
:100C1000F894813009F1813020F0823009F055C01C
:100C200039C016BC809145008B7F80934500809130
:100C300045008D7F809345008091450081608093C1
:100C4000450080916E00816080936E008091350038
:100C500081608093350039C0109285001092840025
:100C6000809181008B7F80938100809181008D7FB6
:100C700080938100809181008160809381008091C8
:100C80006F00816080936F00809136008160809357
:100C900036001BC01092B2008091B1008B7F809310
:100CA000B1008091B1008D7F8093B1008091B1003F
:100CB00081608093B10080917000816080937000AA
:100CC00080913700816080933700613009F061C006
:100CD000913009F1913020F0923009F05AC03EC0B5
:100CE000809144008E7F8093440080914400826014
:100CF0008093440080914500877F8093450047BDE5
:100D000080916E00826080936E00809135008260D9
:100D1000809335003EC0809180008E7F809380005C
:100D2000809180008D7F8093800080918100886019
:100D300080938100809181008F7E80938100509309
:100D400089004093880080916F00826080936F00DB
:100D5000809136008260809336001BC08091B00085
:100D60008E7F8093B0008091B00082608093B0004D
:100D70008091B100877F8093B1004093B300809150
:100D80007000826080937000809137008260809351
:100D9000370078940895813039F0813018F082302E
:100DA00051F407C067BD089570938900609388006F
:100DB00008956093B300089581E08093A30108959E
:100DC0001092A3010895E82FF0E0EF70F070ED5657
:100DD000FE4F8081089582958F70E3E9F1E0E80F7E
:100DE000F11D808108954F925F926F927F928F9252
:100DF0009F92AF92BF92CF92DF92EF92FF920F93AA
:100E00001F93CF93DF933B014C01EA018091A30133
:100E1000882309F440C06114710481049104C1F174
:100E20005524A12C8AECB82E8AE9C82E8BE3D82E43
:100E30004424C401B301A60195010E94860A7901E8
:100E40008A01E114F1040105110511F4442079F03F
:100E50008E2D805D8993C801B701A60195010E947E
:100E6000670A661A770A880A990A442443945394B5
:100E70008AE0581679F0C601B5012AE030E040E07A
:100E800050E00E94860AC901DA015C016D01D1CFF0
:100E900080E389931882DF91CF911F910F91FF908A
:100EA000EF90DF90CF90BF90AF909F908F907F900A
:100EB0006F905F904F900895EF92FF920F931F9362
:100EC000DF93CF93CDB7DEB72B970FB6F894DEBF85
:100ED0000FBECDBF7B018C018091A3018823E9F077
:100EE00017FF0BC010950095F094E094E11CF11CE5
:100EF000011D111D8DE20E941B03C801B7018E0167
:100F00000F5F1F4FA8010E94F30602C00E941B033F
:100F1000F80181918F018823C9F72B960FB6F894B9
:100F2000DEBF0FBECDBFCF91DF911F910F91FF901C
:100F3000EF9008950F931F93DF93CF93CDB7DEB754
:100F40002B970FB6F894DEBF0FBECDBF9B01AC014F
:100F50008091A301882381F0CA01B9018E010F5F3E
:100F60001F4FA8010E94F30602C00E941B03F80154
:100F700081918F018823C9F72B960FB6F894DEBFB5
:100F80000FBECDBFCF91DF911F910F910895AF920A
:100F9000BF92CF92DF92EF92FF920F931F935B016C
:100FA0006C018091A301882309F45BC0C601B501DF
:100FB00020E030E040E85FEB0E94000A18166CF475
:100FC000C601B50120E030E040E050E00E94B108E9
:100FD00088231CF48DE20E941B03C601B5010E9408
:100FE0001D097B018C01C8010E945C078EE20E94F2
:100FF0001B03C601B50120E030E04AE754E40E943B
:10100000040A0E941D095B016C01B701C80128EEAA
:1010100033E040E050E00E94670AA61AB70AC80A07
:10102000D90AD7FE08C0D094C094B094A094A11C53
:10103000B11CC11CD11C84E6A816B104C104D104A2
:1010400064F480E30E941B038AE0A816B104C10483
:10105000D1041CF480E30E941B03C601B5010E9469
:101060009A071F910F91FF90EF90DF90CF90BF9064
:10107000AF900895CF93DF939C018091A3018823C3
:1010800039F0E90102C00E941B0389918823D9F736
:10109000DF91CF910895982F8091A301882319F0B3
:1010A000892F0E941B030895CF92DF92EF92FF9247
:1010B0000F931F93CF93DF936C018B018FE791E028
:1010C0000E943A08B80180E090E00E949A078EE8FA
:1010D00091E00E943A08C0E0D0E078010894E1086D
:1010E000F10810C0F601EC0FFD1F608170E080E098
:1010F00090E00E949A07CE15DF0518F48CE20E945A
:101100004B082196C017D10768F381E991E00E944E
:101110003A08DF91CF911F910F91FF90EF90DF90F0
:10112000CF9008950F931F93CF93DF93182F092F1C
:101130008091A301882381F08AE00E941B038DE047
:101140000E941B03812F902F9C01E90102C00E9485
:101150001B0389918823D9F7DF91CF911F910F91BC
:101160000895D9D008F481E008950CD00FC107D1BB
:1011700040F0FED030F021F45F3F19F0F0C0511183
:1011800039C1F3C014D198F39923C9F35523B1F3AE
:10119000951B550BBB27AA2762177307840738F0E6
:1011A0009F5F5F4F220F331F441FAA1FA9F333D045
:1011B0000E2E3AF0E0E830D091505040E695001CF9
:1011C000CAF729D0FE2F27D0660F771F881FBB1FB5
:1011D000261737074807AB07B0E809F0BB0B802D8F
:1011E000BF01FF2793585F4F2AF09E3F510568F0DB
:1011F000B6C000C15F3FECF3983EDCF3869577956F
:101200006795B795F7959F5FC9F7880F911D9695DC
:10121000879597F90895E1E0660F771F881FBB1F38
:10122000621773078407BA0720F0621B730B840BE5
:10123000BA0BEE1F88F7E095089504D06894B111B9
:10124000D9C00895BCD088F09F5790F0B92F992746
:10125000B751A0F0D1F0660F771F881F991F1AF0C1
:10126000BA95C9F712C0B13081F0C3D0B1E008958A
:10127000C0C0672F782F8827B85F39F0B93FCCF30B
:10128000869577956795B395D9F73EF490958095B7
:10129000709561957F4F8F4F9F4F0895E89409C0D7
:1012A00097FB3EF490958095709561957F4F8F4F99
:1012B0009F4F9923A9F0F92F96E9BB279395F695AF
:1012C000879577956795B795F111F8CFFAF4BB0F2D
:1012D00011F460FF1BC06F5F7F4F8F4F9F4F16C091
:1012E000882311F096E911C0772321F09EE8872F1B
:1012F000762F05C0662371F096E8862F70E060E0D7
:101300002AF09A95660F771F881FDAF7880F96954F
:10131000879597F90895990F0008550FAA0BE0E8F3
:10132000FEEF16161706E807F907C0F012161306A7
:10133000E407F50798F0621B730B840B950B39F4E7
:101340000A2661F0232B242B252B21F408950A264D
:1013500009F4A140A6958FEF811D811D089597F98D
:101360009F6780E870E060E008959FEF80EC08954B
:1013700000240A9416161706180609060895002474
:101380000A9412161306140605060895092E0394EE
:10139000000C11F4882352F0BB0F40F4BF2B11F462
:1013A00060FF04C06F5F7F4F8F4F9F4F089557FDC1
:1013B0009058440F551F59F05F3F71F04795880FC3
:1013C00097FB991F61F09F3F79F08795089512165A
:1013D00013061406551FF2CF4695F1DF08C0161606
:1013E00017061806991FF1CF8695710561050894B7
:1013F0000895E894BB2766277727CB0197F90895CE
:101400008ADF08F48FEF08950BD0C0CFB1DF28F04A
:10141000B6DF18F0952309F0A2CFA7CF1124EACFA9
:10142000C6DFA0F3959FD1F3950F50E0551F629F43
:10143000F001729FBB27F00DB11D639FAA27F00D2D
:10144000B11DAA1F649F6627B00DA11D661F829F54
:101450002227B00DA11D621F739FB00DA11D621F39
:10146000839FA00D611D221F749F3327A00D611D56
:10147000231F849F600D211D822F762F6A2F112438
:101480009F5750408AF0E1F088234AF0EE0FFF1F8B
:10149000BB1F661F771F881F91505040A9F79E3FC2
:1014A000510570F05CCFA6CF5F3FECF3983EDCF3C4
:1014B000869577956795B795F795E7959F5FC1F7FF
:1014C000FE2B880F911D9695879597F90895629F39
:1014D000D001739FF001829FE00DF11D649FE00D2C
:1014E000F11D929FF00D839FF00D749FF00D659F8D
:1014F000F00D9927729FB00DE11DF91F639FB00D8C
:10150000E11DF91FBD01CF0111240895A1E21A2E9A
:10151000AA1BBB1BFD010DC0AA1FBB1FEE1FFF1F97
:10152000A217B307E407F50720F0A21BB30BE40BE7
:10153000F50B661F771F881F991F1A9469F760952E
:101540007095809590959B01AC01BD01CF010895E8
:04155000F894FFCF3D
:101554006E000000960000002C010000B0040000A2
:1015640060090000C012000080250000004B00004C
:101574000096000000E1000000C2010000840300A6
:101584000008070000100E003A002C0000484947EC
:1015940048004C4F57005072657373206275747421
:1015A4006F6E203720746F20626567696E207361E7
:1015B4006D706C696E672041444320340053616D43
:1015C400706C696E6720436F6D706C657465002084
:1015D40053747265616D3A2073697A653D00205BCE
:1015E400005D0030313233343536373839414243C7
:0415F4004445460123
:00000001FF
