:100000000C943E000C9453000C9453000C94530039
:100010000C9453000C9453000C9453000C94530014
:100020000C9453000C9453000C9453000C94530004
:100030000C9453000C9453000C9453000C94E30064
:100040000C9453000C9453000C9453000C945300E4
:100050000C9453000C9453000C9453000C945300D4
:100060000C9453000C9453000C9453000C945300C4
:100070000C9453000C9453000C94530011241FBE95
:10008000CFEFD0E1DEBFCDBF11E0A0E0B1E0E2E50F
:10009000F2E002C005900D92A833B107D9F70E9493
:1000A000F5000C9427010C9400009B01AC01E0E0EA
:1000B000F1E080819181A281B381281739074A0735
:1000C0005B0749F0349681E0E433F80791F720E0CC
:1000D00032EC41E050E064E0220F331F441F551F13
:1000E0006A95D1F760E070E489E191E00E94050132
:1000F000C901DA010197A109B109292F3A2F4B2F24
:1001000055270196A11DB11D2093CD0081508093EC
:10011000CC0088E18093C9008EE08093CA000895E6
:10012000982F8091C80085FFFCCF9093CE00089552
:100130008091C80087FFFCCF8091CE000895809108
:10014000240081608093240080912A008F7E809318
:100150002A0008958091240081608093240080917A
:100160002A008F7E80932A009091290092959170A9
:10017000809125008E7F892B80932500F5CF209AD2
:10018000F8941092850010928400809181008B7FFA
:1001900080938100809181008260809381008091B2
:1001A000810081608093810080916F0081608093E5
:1001B0006F008091360081608093360078940895B6
:1001C0000E94BF00FFCF1F920F920FB60F92112413
:1001D0008F939F9385B191E0892785B99F918F91E6
:1001E0000F900FBE0F901F9018950E94E00080E0C6
:1001F00090E0089560E072EC81E090E00E9455008C
:100200000E9498000E949000FBCFA1E21A2EAA1B28
:10021000BB1BFD010DC0AA1FBB1FEE1FFF1FA217B6
:10022000B307E407F50720F0A21BB30BE40BF50BB3
:10023000661F771F881F991F1A9469F7609570953C
:10024000809590959B01AC01BD01CF010895F89474
:02025000FFCFDE
:100252006E000000960000002C010000B0040000B7
:1002620060090000C012000080250000004B000061
:100272000096000000E1000000C2010000840300BB
:080282000008070000100E0047
:00000001FF
