:100000000C9478000C9495000C9495000C94950039
:100010000C9495000C9495000C94700A0C94950027
:100020000C9495000C9495000C9495000C949500FC
:100030000C9495000C94B8050C9495000C949500C4
:100040000C9495000C9495000C94A50D0C949500BF
:100050000C9495000C9495000C9495000C949500CC
:100060000C9409080C9495000C9495000C94950040
:100070000C9495000C9495000C949500084AD73B7D
:100080003BCE016E84BCBFFDC12F3D6C74319ABD67
:1000900056833DDA3D00C77F11BED9E4BB4C3E918B
:1000A0006BAAAABE000000803F072C7AA5BA6CC5D7
:1000B00090DA3B9365FC8BBC53F810FD3C56928361
:1000C0004DBD879D3AB63DCBC9BF5BBE73DA0FC944
:1000D0003F05A84CCDB2D44EB93836A9020C50B960
:1000E000918688083CA6AAAA2ABE000000803F008C
:1000F00011241FBECFEFD0E1DEBFCDBF11E0A0E0E5
:10010000B1E0E6E6F7E202C005900D92AE36B10727
:10011000D9F71EE0AEE6B1E001C01D92AD36B107E1
:10012000E1F70E94FD0B0C94B1130C94000081E0E8
:10013000809334010895109234010895E82FF0E07F
:10014000EF70F070EC5DFE4F8081089582958F70A6
:10015000E4E2F1E0E80FF11D808108954F925F9293
:100160006F927F928F929F92AF92BF92CF92DF92C7
:10017000EF92FF920F931F93CF93DF933B014C01BC
:10018000EA0180913401882309F440C061147104AC
:1001900081049104C1F15524A12C8AECB82E8AE97E
:1001A000C82E8BE3D82E4424C401B301A6019501C7
:1001B0000E948F1379018A01E114F10401051105F0
:1001C00011F4442079F08E2D805D8993C801B70128
:1001D000A60195010E947013661A770A880A990A87
:1001E0004424439453948AE0581679F0C601B5012B
:1001F0002AE030E040E050E00E948F13C901DA01AC
:100200005C016D01D1CF80E389931882DF91CF919A
:100210001F910F91FF90EF90DF90CF90BF90AF9024
:100220009F908F907F906F905F904F900895EF9286
:10023000FF920F931F93DF93CF93CDB7DEB72B972A
:100240000FB6F894DEBF0FBECDBF7B018C0180914D
:1002500034018823E9F017FF0BC010950095F09446
:10026000E094E11CF11C011D111D8DE20E948F061E
:10027000C801B7018E010F5F1F4FA8010E94AE0099
:1002800002C00E948F06F80181918F018823C9F76F
:100290002B960FB6F894DEBF0FBECDBFCF91DF9186
:1002A0001F910F91FF90EF9008950F931F93DF938D
:1002B000CF93CDB7DEB72B970FB6F894DEBF0FBE46
:1002C000CDBF9B01AC0180913401882381F0CA012C
:1002D000B9018E010F5F1F4FA8010E94AE0002C03E
:1002E0000E948F06F80181918F018823C9F72B9610
:1002F0000FB6F894DEBF0FBECDBFCF91DF911F9137
:100300000F910895AF92BF92CF92DF92EF92FF923A
:100310000F931F935B016C0180913401882309F4D2
:100320005BC0C601B50120E030E040E85FEB0E9411
:10033000911218166CF4C601B50120E030E040E0DF
:1003400050E00E94C61088231CF48DE20E948F06A4
:10035000C601B5010E9435117B018C01C8010E94C4
:1003600017018EE20E948F06C601B50120E030E041
:100370004AE754E40E949C120E9435115B016C0113
:10038000B701C80128EE33E040E050E00E9470134E
:10039000A61AB70AC80AD90AD7FE08C0D094C094D2
:1003A000B094A094A11CB11CC11CD11C84E6A81659
:1003B000B104C104D10464F480E30E948F068AE092
:1003C000A816B104C104D1041CF480E30E948F0676
:1003D000C601B5010E9455011F910F91FF90EF904A
:1003E000DF90CF90BF90AF900895CF93DF939C01A3
:1003F00080913401882339F0E90102C00E948F0600
:1004000089918823D9F7DF91CF910895982F809112
:100410003401882319F0892F0E948F060895CF9206
:10042000DF92EF92FF920F931F93CF93DF936C01B4
:100430008B0180E191E00E94F501B80180E090E03D
:100440000E9455018FE191E00E94F501C0E0D0E0EB
:1004500078010894E108F10810C0F601EC0FFD1FC7
:10046000608170E080E090E00E945501CE15DF05CC
:1004700018F48CE20E9406022196C017D10768F397
:1004800082E291E00E94F501DF91CF911F910F91DF
:10049000FF90EF90DF90CF9008950F931F93CF932D
:1004A000DF93182F092F80913401882381F08AE08F
:1004B0000E948F068DE00E948F06812F902F9C0155
:1004C000E90102C00E948F0689918823D9F7DF9144
:1004D000CF911F910F91089591B121E030E002C0BA
:1004E000220F331F8A95E2F7822F8095892381B9E5
:1004F000EEE7F0E08081282B208380917C008F77CD
:1005000080937C0080917C00806480937C0080914B
:100510007A00846080937A0080917A008260809370
:100520007A0080917A00816080937A0080917A00CD
:10053000806880937A00089591B121E030E002C094
:10054000220F331F8A95E2F7922B91B9EEE7F0E084
:10055000808120952823208310927900E8E7F0E03D
:10056000108211821082089590917C00907E909369
:100570007C0090917C00982B90937C0080917A0075
:10058000806480937A0080917A0086FDFCCF209170
:10059000780030917900C90108950F931F938B0162
:1005A00090912B009F7E90932B0080630E944E06BB
:1005B000C80124E0969587952A95E1F70E944E069A
:1005C000802F8295807F0E944E0680912B00806153
:1005D00080932B001F910F9108951F93182FCB012B
:1005E000BA0120E030EC4CEC54E40E949C120E94D2
:1005F0003A119B01AC01812FB9010E94CD021F91DC
:1006000008950E941B0680912A00806180932A0031
:1006100080912B008F7E80932B008FE60E944E06E8
:1006200080E00E944E0680E00E944E0680912B00E2
:10063000806180932B00089520E030E040E050E09E
:1006400020938A0130938B0140938C0150938D014C
:10065000209386013093870140938801509389014C
:10066000209392013093930140939401509395010C
:1006700020938E0130938F0140939001509391010C
:1006800060939601709397018093980190939901DC
:1006900080912A00806880932A000895CF92DF928B
:1006A000EF92FF920F931F938834C9F440936E0129
:1006B00050936F0160937001709371010093720108
:1006C000109373012093740130937501C0927601E9
:1006D000D0927701E0927801F09279011AC08C34BF
:1006E000C1F440937A0150937B0160937C01709335
:1006F0007D0100937E0110937F0120938001309350
:100700008101C0928201D0928301E0928401F09233
:1007100085011F910F91FF90EF90DF90CF9008958A
:100720002F923F924F925F926F927F928F929F9201
:10073000AF92BF92CF92DF92EF92FF920F931F93EF
:10074000DF93CF93CDB7DEB764970FB6F894DEBFD3
:100750000FBECDBF182F641B750B882777FD8095C2
:10076000982F0E94681169837A838B839C83183445
:1007700009F0F0C0E0908E01F0908F01009190019F
:10078000109191012091960130919701409198012B
:10079000509199010E949C129B01AC01C801B701C4
:1007A0000E94001060938E0170938F0180939001DE
:1007B0009093910160918E0170918F0180919001D1
:1007C0009091910120E030E048EC52E40E949112B7
:1007D000181664F480E090E0A8ECB2E480938E01F7
:1007E00090938F01A0939001B093910160918E013D
:1007F00070918F01809190019091910120E030E003
:1008000048EC52EC0E94C610882364F480E090E02B
:10081000A8ECB2EC80938E0190938F01A09390018D
:10082000B09391012090860130908701409088011B
:100830005090890120919601309197014091980143
:1008400050919901298B3A8B4B8B5C8B89819A81D2
:10085000AB81BC818093860190938701A09388012E
:10086000B093890160916E0170916F018091700168
:1008700090917101A0907201B0907301C0907401C9
:10088000D090750160908E0170908F0180909001E2
:1008900090909101209176013091770140917801FB
:1008A000509179012D873E874F87588B29813A8156
:1008B0004B815C810E949C127B018C01C601B501B9
:1008C000A40193010E949C129B01AC01C801B701D5
:1008D0000E9400107B018C0169817A818B819C814F
:1008E000A20191010E94FF0F29893A894B895C89F5
:1008F0000E94CD109B01AC016D857E858F85988906
:100900000E949C129B01AC01C801B7010E9400101B
:100910000E9435117093BA016093B9018091B901B9
:100920009091BA018050904134F08FEF9FE0909306
:10093000BA018093B9018091B9019091BA018150B7
:10094000904F0CF0FCC081E090EF9093BA0180933F
:10095000B901F5C01C3409F0F2C0E0909201F090AA
:10096000930100919401109195012091960130918D
:100970009701409198015091990169817A818B8109
:100980009C810E949C129B01AC01C801B7010E948E
:10099000001060939201709393018093940190935F
:1009A00095016091920170919301809194019091D1
:1009B000950120E030E048EC52E40E9491121816B4
:1009C00064F480E090E0A8ECB2E48093920190930C
:1009D0009301A0939401B09395016091920170915D
:1009E0009301809194019091950120E030E048ECD2
:1009F00052EC0E94C610882364F480E090E0A8ECDA
:100A0000B2EC8093920190939301A0939401B093E0
:100A1000950120908A0130908B0140908C0150907C
:100A20008D018091960190919701A0919801B091CC
:100A3000990189879A87AB87BC8729813A814B8145
:100A40005C8120938A0130938B0140938C015093F9
:100A50008D0160917A0170917B0180917C01909170
:100A60007D01A0907E01B0907F01C0908001D09068
:100A70008101609092017090930180909401909018
:100A80009501209182013091830140918401509120
:100A900085012D833E834F83588729813A814B817D
:100AA0005C810E949C127B018C01C601B501A401EE
:100AB00093010E949C129B01AC01C801B7010E94E6
:100AC00000107B018C0169817A818B819C81A2015C
:100AD00091010E94FF0F29853A854B855C850E9414
:100AE000CD109B01AC016D817E818F8198850E9424
:100AF0009C129B01AC01C801B7010E9400100E942A
:100B000035117093BC016093BB018091BB01909142
:100B1000BC018050904134F08FEF9FE09093BC0176
:100B20008093BB018091BB019091BC018150904F9B
:100B300034F481E090EF9093BC018093BB01649604
:100B40000FB6F894DEBF0FBECDBFCF91DF911F91DE
:100B50000F91FF90EF90DF90CF90BF90AF909F905C
:100B60008F907F906F905F904F903F902F9008955F
:100B70001F920F920FB60F9211242F933F934F9312
:100B80005F936F937F938F939F93AF93BF93EF93F5
:100B9000FF939091A2018091A101981750F180914B
:100BA0002800881F8827881F809587958827879524
:100BB00090912B009F77982B90932B001092A2017D
:100BC0006091A3017091A4014091AF015091B001D7
:100BD00088E40E9490036091A5017091A601409164
:100BE000AD015091AE018CE40E9490030E94AE07CB
:100BF00005C08091A2018F5F8093A201FF91EF91C8
:100C0000BF91AF919F918F917F916F915F914F9124
:100C10003F912F910F900FBE0F901F90189585E078
:100C20008093A1011092A20181E061E040E050E9CF
:100C30000E941C0F089580912400806880932400F6
:100C400080912400806280932400809124008F7B17
:100C500080932400809124008061809324008091FF
:100C6000250080618093250080914C0080648093F2
:100C70004C0080914C00806180934C0080914C002E
:100C80008E7F80934C0080914C008D7F80934C0030
:100C900080914D00816080934D0008958EBD0DB40C
:100CA00007FEFDCF8EB508959B01AC01E5E3F1E0B1
:100CB00080819181A281B381281739074A075B0798
:100CC00049F0349681E0E936F80791F720E032ECFC
:100CD00041E050E064E0220F331F441F551F6A9526
:100CE000D1F760E070E489E191E00E948F13C901BF
:100CF000DA010197A109B109292F3A2F4B2F552766
:100D00000196A11DB11D2093CD0081508093CC0090
:100D100088E18093C9008EE08093CA000895982FDF
:100D20008091C80085FFFCCF9093CE0008958091FC
:100D3000C80087FFFCCF8091CE000895883499F4D5
:100D40006091AF017091B00180E090E00E94661167
:100D500020E030E04AE254E40E94FF0F28E837E840
:100D600047E85EE319C08C3429F0E0E070E080E0F1
:100D700060E016C06091AD017091AE0180E090E03E
:100D80000E94661120E030E04CE853E40E94FF0F1F
:100D900022EB30E945E85EE30E949C12E62F692FC2
:100DA0002E2F372F482F562FB901CA0108958834A6
:100DB000A9F4CB01BA012CE137EC41E750E40E94E1
:100DC0009C1220E030E04AE254E40E9400100E94AD
:100DD0003A117093A4016093A30108958C34A1F497
:100DE000CB01BA0125E535E545E750E40E949C12A8
:100DF00020E030E04CE853E40E9400100E943A11D9
:100E00007093A6016093A5010895883499F46091C8
:100E1000A3017091A40180E090E00E94661120E09F
:100E200030E04AE254E40E94FF0F28E837E847E840
:100E30005EE319C08C3429F0E0E070E080E060E00F
:100E400016C06091A5017091A60180E090E00E941B
:100E5000661120E030E04CE853E40E94FF0F22EBE3
:100E600030E945E85EE30E949C12E62F692F2E2FA1
:100E7000372F482F562FB901CA010895AF92BF925C
:100E8000CF92DF92EF92FF920F931F93DF93CF9356
:100E9000CDB7DEB728970FB6F894DEBF0FBECDBF33
:100EA0005B016C0179018A01CE010196BE016B5F85
:100EB0007F4FA60195010E944C0949815A816B819F
:100EC0007C818CE40E94D7064D815E816F8178859C
:100ED00088E40E94D70628960FB6F894DEBF0FBEAE
:100EE000CDBFCF91DF911F910F91FF90EF90DF90D9
:100EF000CF90BF90AF900895CF93DF93EB018C34E8
:100F000091F477FD05C080E00E94CD0281E01FC012
:100F100080E060E070E00E94CD02662777276C1BBE
:100F20007D0B81E016C08834B1F477FD08C082E003
:100F300060E070E00E94CD0283E0BE010AC0662737
:100F400077276C1B7D0B82E00E94CD0283E060E07E
:100F500070E00E94CD02DF91CF910895EF92FF9251
:100F60000F931F93E090B901F090BA0188E40E94BA
:100F70009E0625E33AEF4EE85CE30E949C120E9435
:100F8000CA100E94351104EF11E0CB01809FB0011F
:100F9000819F700D909F700D11246E0D7F1D88E450
:100FA0000E947C07E090BB01F090BC018CE40E94A1
:100FB0009E0625E33AEF4EE85CE30E949C120E94F5
:100FC000CA100E943511CB01809FB001819F700D26
:100FD000909F700D11246E0D7F1D8CE40E947C0784
:100FE0001F910F91FF90EF9008951F93182FCB0141
:100FF000BA0120E030EF4FE755E40E949C120E94B6
:1010000035119B01AC01812FB9010E947C071F9112
:1010100008951F920F920FB60F9211242F938F9362
:101020009F93EF93FF938091A7019091A801892B43
:1010300031F120917C00277079F0E22FF0E080916F
:10104000780090917900EE0FFF1FE856FE4F908BCD
:101050008787273051F00DC08091780090917900FA
:101060009093B8018093B70104C080917C00807E8A
:1010700003C080917C008F5F80937C000BC08091C7
:1010800078009091790090939B0180939A0181E080
:101090008093A001FF91EF919F918F912F910F90DD
:1010A0000FBE0F901F9018951F93F89481E090E069
:1010B0009093A8018093A70110E0812F0E946C02F9
:1010C0001F5F1830D1F780917A00806280937A0098
:1010D00080917B008E7F80937B0080917B008D7F51
:1010E00080937B0080917B008B7F80937B0080913D
:1010F0007A00886080937A0080917C00807E809363
:101100007C0080917A00806480937A0078941F91AB
:1011100008951F93182FF8941092A8011092A70118
:101120000E946C0280917A00806280937A008091A4
:101130007B008E7F80937B0080917B008D7F8093EE
:101140007B0080917B008B7F80937B0080917A0075
:10115000886080937A00ECE7F0E08081807E808375
:101160008081812B808380917A00806480937A00D3
:1011700078941F910895F89487B1887F87B98091FA
:101180006D00806880936D0080916D008064809315
:101190006D0080916D00806280936D0080916D0084
:1011A000806180936D008091680084608093680006
:1011B00080913B00846080933B0078940895AA2737
:1011C00097FDA095BA2FBC01CD010E9468112AE0BD
:1011D00038E240EA5BE30E949C1220E030E040E20B
:1011E00050E40E94FF0F20E030E040EA51E40E940A
:1011F000CD102DEC3CEC4CE45DE30E94CD10089545
:1012000010929C0110929D0110929E0110929F01DC
:101210001092A0011092A1011092A2011092A401BB
:101220001092A3011092A8011092A70110929B01A5
:1012300010929A011092BA011092B9011092BC0159
:101240001092BB011092BD011092BE011092BF011D
:101250001092C0011092C1011092C2011092C301FC
:101260001092C40180E090E0A0E0B0E08093490ECD
:1012700090934A0EA0934B0EB0934C0E80E090E0FA
:10128000FC01EE0FFF1FE656FE4F108A17860196EF
:1012900088309105A9F708952F923F924F925F925F
:1012A0006F927F928F929F92AF92BF92CF92DF9276
:1012B000EF92FF920F931F931C012B0139014A01FA
:1012C000CA01B9010E949C125B016C01C801B701FF
:1012D000A80197010E949C129B01AC01C601B501B7
:1012E0000E94001020E030E040E856E40E94FF0F2A
:1012F00020E030E942E256E40E94FF0F20E030E0B7
:101300004CEC56E40E94CD100E94F10F5B016C0181
:10131000F201608371838283938317FB109517F921
:101320001095C801B701A40193010E9473109B019D
:10133000AC01C601B5010E94FF0FF101608371830A
:1013400082839383F201608171818281938121EE96
:101350003EE245E652E40E949C12F20160837183F2
:1013600082839383F101608171818281938121EE77
:101370003EE245E652E40E949C12F10160837183D3
:10138000828393831F910F91FF90EF90DF90CF9016
:10139000BF90AF909F908F907F906F905F904F9095
:1013A0003F902F9008952F923F924F925F926F92AD
:1013B0007F928F929F92AF92BF92CF92DF92EF92E5
:1013C000FF920F931F93DF93CF9300D000D0CDB740
:1013D000DEB79C838B837A83698339014A01CA0112
:1013E000B90125E33AEF4EE85CE30E949C125B01F1
:1013F0006C01C6010E94CA101B012C01C401B3017B
:10140000A80197010E94001025E33AEF4EE85CE343
:101410000E949C127B018C01C8010E94CA103B01F2
:101420004C01C201B10120E030E040E053E40E94F1
:101430009C121B012C01C401B30120E030E04CECF4
:1014400052E40E949C129B01AC01C201B1010E94B6
:101450000010EB81FC816083718382839383B501EB
:10146000C6010E94FF125B016C01B701C8010E9416
:10147000FF127B018C01C601B50120E030E040E0A5
:1014800053E40E949C125B016C01C801B70120E08B
:1014900030E04CEC52E40E949C129B01AC01C6016E
:1014A000B5010E940010E981FA8160837183828313
:1014B00093830F900F900F900F90CF91DF911F911A
:1014C0000F91FF90EF90DF90CF90BF90AF909F90E3
:1014D0008F907F906F905F904F903F902F900895E6
:1014E0001F920F920FB60F9211240F900FBE0F9004
:1014F0001F901895CF92DF92EF92FF920F931F9358
:1015000079018A010E94820180E0C82E81E0D82EF4
:10151000C6010E94F501C801B7010E948201C601FF
:101520000E94F5018CE40E949E060E948201C60181
:101530000E94F50188E40E949E060E94820182E0DA
:1015400091E00E944D021F910F91FF90EF90DF906C
:10155000CF9008958F929F92AF92BF92CF92DF92D9
:10156000EF92FF920F931F938CE40E9405070E9455
:10157000820190E0892E91E0992EC4010E94F5012C
:101580008CE40E949E060E948201C4010E94F50123
:10159000E090BB01F090BC018CE40E949E0625E324
:1015A0003AEF4EE85CE30E949C120E94CA105B0175
:1015B0006C010027F7FC0095102FC801B7010E94AD
:1015C00068117B018C01C601B50120E030E04AEFD3
:1015D00053E40E949C129B01AC01C801B7010E9418
:1015E000001021E03AE040E25AE30E949C1220E021
:1015F00030E04AE754E40E949C120E948201C40138
:101600000E94F5018091A9019091AA010E94DF0832
:1016100020E030E04AE754E40E949C120E948201DC
:1016200003E011E0C8010E94F50160917A01709118
:101630007B0180917C0190917D010E948201C80113
:101640000E94F50160917E0170917F01809180017F
:10165000909181010E948201C8010E94F501609170
:1016600082017091830180918401909185010E9493
:10167000820182E091E00E944D021F910F91FF9044
:10168000EF90DF90CF90BF90AF909F908F90089594
:101690000F931F936091AF017091B00180E090E0D3
:1016A0000E94550103E011E0C8010E94F50160911C
:1016B000AD017091AE0180E090E00E945501C8013B
:1016C0000E94F5016091B1017091B20180E090E05B
:1016D0000E945501C8010E94F5016091B30170910B
:1016E000B40180E090E00E945501C8010E94F5011C
:1016F0006091B5017091B60180E090E00E945501C3
:1017000082E091E00E944D021F910F9108958F9207
:101710009F92AF92BF92CF92DF92EF92FF920F9380
:101720001F93E090AD01F090AE01A090AF01B0909A
:10173000B0010027F7FC0095102FC801B7010E94E7
:10174000550120E0822E21E0922EC4010E94F50175
:10175000CC24B7FCC094DC2CC601B5010E94550115
:10176000C4010E94F501C801B7010E9468112AE076
:1017700038E240EA5BE30E949C1220E030E04AE756
:1017800054E40E949C120E943A110E945501C40127
:101790000E94F501C601B5010E9468112AE038E2F5
:1017A00040EA5BE30E949C1220E030E04AE754E408
:1017B0000E949C120E943A110E945501C4010E948D
:1017C000F5018CE40E949E060E948201C4010E94E1
:1017D000F50188E40E949E060E94820182E091E069
:1017E0000E944D021F910F91FF90EF90DF90CF90DC
:1017F000BF90AF909F908F9008952F923F924F92FD
:101800005F926F927F928F929F92AF92BF92CF9290
:10181000DF92EF92FF920F931F93DF93CF93CDB799
:10182000DEB728970FB6F894DEBF0FBECDBF0E947B
:10183000000960E072EC81E090E00E94540685E0CF
:1018400091E00E944D020F2EF0E06F2EF0E07F2E0F
:10185000FAEF8F2EF3E49F2EF02D35E0232E312C5E
:101860002C0E3D1E2E010894411C511C0E940103A8
:101870006AE077ED83E29CE30E941C030E94540817
:1018800088E440E050E060EF71E400E010E020EA1E
:1018900030E40F2EF0E0CF2EF0E0DF2EF0E8EF2E58
:1018A000FFE3FF2EF02D0E944E038CE440E050E059
:1018B00064E372E4970186010F2EFDECCF2EFCEC61
:1018C000DF2EFCE4EF2EFEE3FF2EF02D0E944E03F0
:1018D0008CE440E050E060E070E00E94D70688E4CD
:1018E00040E050E060E070E00E94D7060E940F06E2
:1018F0008091260087FDFCCF8DB79EB708970FB665
:10190000F8949EBF0FBE8DBFEDB7FEB761827282A5
:10191000838294828AE097EDA3E2BCE38583968379
:10192000A783B08760E070E080E090E09B01AC01AD
:101930000F2EF0E0EF2EF0E0FF2EF6E90F2FF2E48D
:101940001F2FF02D0F2EF0E0AF2EF0E0BF2EFCED9C
:10195000CF2EF2ECDF2EF02D0E947C0E8DB79EB7BD
:1019600008960FB6F8949EBF0FBE8DBF1AC08CE4C8
:101970000E949E065B016C0188E40E949E067B012A
:101980008C01C201B101A60195010E94D3096981B0
:101990007A818B819C812D813E814F8158850E9467
:1019A0007A0A60915D0E70915E0E80915F0E90914B
:1019B000600E20E030E040E85FE30E94C610181699
:1019C000B4F6EDB7FEB738970FB6F894FEBF0FBE6A
:1019D000EDBF61827282838294828AE097EDA3E2F6
:1019E000BCE385839683A783B08760E070E086E9D7
:1019F00092E420E030E04CED52EC0F2EF0E0EF2EC0
:101A0000F0E0FF2EF4E30F2FF2E41F2FF02D0F2E46
:101A1000F0E0AF2EF0E0BF2EF4EBCF2EF2ECDF2E95
:101A2000F02D0E947C0E8DB79EB708960FB6F894E5
:101A30009EBF0FBE8DBF1AC08CE40E949E065B0144
:101A40006C0188E40E949E067B018C01C201B101F9
:101A5000A60195010E94D30969817A818B819C81BD
:101A60002D813E814F8158850E947A0A60915D0EDA
:101A700070915E0E80915F0E9091600E20E030E0DC
:101A800040E85FE30E94C6101816B4F6EDB7FEB743
:101A900038970FB6F894FEBF0FBEEDBF6182728219
:101AA000838294828AE097EDA3E2BCE385839683E8
:101AB000A783B08760E070E084E392E420E030E048
:101AC00044EB52EC0F2EF0E0EF2EF0E0FF2EF0E0B2
:101AD0000F2FF0E01F2FF02D570168010E947C0EA0
:101AE0008DB79EB708960FB6F8949EBF0FBE8DBFF8
:101AF0001AC08CE40E949E065B016C0188E40E947F
:101B00009E067B018C01C201B101A60195010E94D4
:101B1000D30969817A818B819C812D813E814F819E
:101B200058850E947A0A60915D0E70915E0E8091D8
:101B30005F0E9091600E20E030E040E85FE30E948D
:101B4000C61018160CF492CED4CF1F920F920FB677
:101B50000F921124EF92FF920F931F932F933F93B5
:101B60004F935F936F937F938F939F93AF93BF93A5
:101B7000EF93FF936091650E7091660E8091670EF2
:101B80009091680E2091610E3091620E4091630E2B
:101B90005091640E0E94911288230CF482C080E060
:101BA00090E0A0E0B0E08093650E9093660EA09365
:101BB000670EB093680E60915D0E70915E0E80911D
:101BC0005F0E9091600E20E030E040E85FE30E94FD
:101BD000C61018160CF47BC0E0904D0EF0904E0E1F
:101BE00000914F0E1091500E6091550E7091560E4F
:101BF0008091570E9091580E20915D0E30915E0E9F
:101C000040915F0E5091600E0E949C129B01AC01AE
:101C1000C801B7010E940010AB01BC018CE40E9416
:101C2000D706E090510EF090520E0091530E109195
:101C3000540E6091590E70915A0E80915B0E9091E6
:101C40005C0E20915D0E30915E0E40915F0E5091C2
:101C5000600E0E949C129B01AC01C801B7010E945A
:101C60000010AB01BC0188E40E94D70660915D0EB4
:101C700070915E0E80915F0E9091600E2091690EC2
:101C800030916A0E40916B0E50916C0E0E940010C4
:101C900060935D0E70935E0E80935F0E9093600E66
:101CA00016C06091650E7091660E8091670E9091DE
:101CB000680E20E030E040E85FE30E94001060938F
:101CC000650E7093660E8093670E9093680EFF9179
:101CD000EF91BF91AF919F918F917F916F915F91A4
:101CE0004F913F912F911F910F91FF90EF900F9087
:101CF0000FBE0F901F9018952F923F924F925F92B8
:101D00006F927F928F929F92AF92BF92CF92DF920B
:101D1000EF92FF920F931F93DF93CF93CDB7DEB770
:101D20003B014C0119012A01C801B70120E030E054
:101D300040E050E020935D0E30935E0E40935F0EC6
:101D40005093600E0DE41EE0D8016D927D928D924D
:101D50009D92FD0121923192419251928F01298DE4
:101D60003A8D4B8D5C8D2093690E30936A0E4093B3
:101D70006B0E50936C0EA40193010E94FF0FD801CB
:101D80006D937D938D939D938D01C601B501A20145
:101D900091010E94FF0FF801608371838283938316
:101DA00060E070E080E89FE32D893E894F89588D7F
:101DB0000E94CD1020E03DE24DE857E40E949C12C5
:101DC0006093610E7093620E8093630E9093640E25
:101DD00020E030E040E050E02093650E3093660E46
:101DE0004093670E5093680E80E060E04FEF50E044
:101DF0000E941C0F809145008B7F8093450080914D
:101E00004500826080934500809145008E7F8093DD
:101E10004500CF91DF911F910F91FF90EF90DF90E0
:101E2000CF90BF90AF909F908F907F906F905F907A
:101E30004F903F902F900895982FF894813009F19A
:101E4000813020F0823009F055C039C016BC809135
:101E500045008B7F80934500809145008D7F809366
:101E600045008091450081608093450080916E001F
:101E7000816080936E008091350081608093350091
:101E800039C01092850010928400809181008B7F70
:101E900080938100809181008D7F8093810080916B
:101EA000810081608093810080916F0081608093C8
:101EB0006F00809136008160809336001BC01092C5
:101EC000B2008091B1008B7F8093B1008091B1000E
:101ED0008D7F8093B1008091B10081608093B100CB
:101EE00080917000816080937000809137008160E4
:101EF00080933700613009F061C0913009F1913071
:101F000020F0923009F05AC03EC0809144008E7F8C
:101F100080934400809144008260809344008091CB
:101F20004500877F8093450047BD80916E008260A9
:101F300080936E00809135008260809335003EC0B2
:101F4000809180008E7F80938000809180008D7FC3
:101F500080938000809181008860809381008091CF
:101F600081008F7E80938100509389004093880088
:101F700080916F00826080936F0080913600826054
:101F8000809336001BC08091B0008E7F8093B0009C
:101F90008091B00082608093B0008091B100877F13
:101FA0008093B1004093B300809170008260809371
:101FB0007000809137008260809337007894089594
:101FC000813039F0813018F0823051F407C067BD9C
:101FD0000895709389006093880008956093B3001A
:101FE00008959F939F77AFD10F9000203AF49058B7
:101FF000A2EA2AED3FE049E450E413D047C250582A
:10200000BB27AA270ED042C20BD230F010D220F04C
:1020100031F49F3F11F41EF4DBC10EF4E095E7FBB1
:10202000D1C1E92F55D280F3BA176207730784072D
:10203000950718F071F49EF56DC20EF4E0950B2E25
:10204000BA2FA02D0B01B90190010C01CA01A0010A
:102050001124FF27591B99F0593F50F4503E68F165
:102060001A16F040A22F232F342F4427585FF3CFA6
:10207000469537952795A795F0405395C9F77EF477
:102080001F16BA0B620B730B840BBAF09150A1F0C0
:10209000FF0FBB1F661F771F881FC2F70EC0BA0F46
:1020A000621F731F841F48F4879577956795B795CE
:1020B000F7959E3F08F0B3CF9395880F08F09927C6
:1020C000EE0F979587950895ABD158F080E891E091
:1020D00009F49EEFACD128F040E851E059F45EEFEE
:1020E00009C076C117C2E92FE078F2D168F3092E52
:1020F000052AC1F3261737074807590738F00E2E6F
:1021000007F8E02569F0E025E0640AC0EF6307F80E
:10211000009407FADB01B9019D01DC01CA01AD01A0
:10212000EF934AD0B3D10AD05F91552331F02BED14
:102130003FE049E450FD49EC63CF0895DF93DD278C
:10214000B92FBF7740E85FE31616170648075B070D
:1021500010F4D92FEAD19F938F937F936F9397D2E7
:10216000ECE7F0E038D192D12F913F914F915F9100
:10217000EFD1DD2349F09058A2EA2AED3FE049EC87
:102180005FE3D0785D274DDFDF9180C1F7D008F4A1
:1021900081E0089554D1E3958AC10CD077C147D12D
:1021A00040F03ED130F021F45F3F19F00BC15111E6
:1021B000B2C10EC18DD198F39923C9F35523B1F360
:1021C000951B550BBB27AA2762177307840738F0A6
:1021D0009F5F5F4F220F331F441FAA1FA9F333D005
:1021E0000E2E3AF0E0E830D091505040E695001CB9
:1021F000CAF729D0FE2F27D0660F771F881FBB1F75
:10220000261737074807AB07B0E809F0BB0B802D4E
:10221000BF01FF2793585F4F2AF09E3F510568F09A
:10222000D1C079C15F3FECF3983EDCF3869577959A
:102230006795B795F7959F5FC9F7880F911D96959C
:10224000879597F90895E1E0660F771F881FBB1FF8
:10225000621773078407BA0720F0621B730B840BA5
:10226000BA0BEE1F88F7E095089504D06894B11179
:1022700052C1089535D188F09F5790F0B92F992712
:10228000B751A0F0D1F0660F771F881F991F1AF081
:10229000BA95C9F712C0B13081F03CD1B1E00895D0
:1022A00039C1672F782F8827B85F39F0B93FCCF351
:1022B000869577956795B395D9F73EF49095809577
:1022C000709561957F4F8F4F9F4F0895E89409C097
:1022D00097FB3EF490958095709561957F4F8F4F59
:1022E0009F4F9923A9F0F92F96E9BB279395F6956F
:1022F000879577956795B795F111F8CFFAF4BB0FED
:1023000011F460FF1BC06F5F7F4F8F4F9F4F16C050
:10231000882311F096E911C0772321F09EE8872FDA
:10232000762F05C0662371F096E8862F70E060E096
:102330002AF09A95660F771F881FDAF7880F96950F
:10234000879597F90895DF93CF931F930F938B0190
:10235000EC01E9EAF0E03FD099D09801AE018B01A1
:10236000EC0160E070E080E89FE349DE52D1980123
:10237000AE010F911F91CF91DF91EAC0990F000834
:10238000550FAA0BE0E8FEEF16161706E807F90747
:10239000C0F012161306E407F50798F0621B730BE2
:1023A000840B950B39F40A2661F0232B242B252B63
:1023B00021F408950A2609F4A140A6958FEF811D06
:1023C000811D089597F99F6780E870E060E00895A7
:1023D0009FEF80EC0895DF93CF931F930F93FF92AD
:1023E000EF92DF927B018C01689405C0DA2EEF0139
:1023F000AFD0FE01E894A591259135914591559175
:10240000AEF3EF010EDEFE019701A801DA9479F731
:10241000DF90EF90FF900F911F91CF91DF91089582
:1024200000240A94161617061806090608950024B3
:102430000A9412161306140605060895C9CF50D043
:10244000E8F3E894E0E0BB279F57F0F02AED3FE087
:1024500049EC06C0EE0FBB0F661F771F881F28F0E0
:10246000B23A62077307840728F0B25A620B730B03
:10247000840BE3959A9572F7803830F49A95BB0FE8
:10248000661F771F881FD2F7904806C1092E039454
:10249000000C11F4882352F0BB0F40F4BF2B11F451
:1024A00060FF04C06F5F7F4F8F4F9F4F0895EF9382
:1024B000E0FF06C0A2EA2AED3FE049EC5FEBB1DDA8
:1024C000E5DF0F90039401FC9058E1EDF0E0F7C0D8
:1024D00057FD9058440F551F59F05F3F71F04795D5
:1024E000880F97FB991F61F09F3F79F087950895BA
:1024F000121613061406551FF2CF4695F1DF08C0D9
:10250000161617061806991FF1CF869571056105F5
:1025100008940895E894BB2766277727CB0197F99D
:1025200008952CDF08F48FEF08959B01AC0160E063
:1025300070E080E89FE331CE0BD0A8CF71DF28F0A8
:1025400076DF18F0952309F03DCF42CF1124E3CF79
:10255000BFDFA0F3959FD1F3950F50E0551F629F09
:10256000F001729FBB27F00DB11D639FAA27F00DEC
:10257000B11DAA1F649F6627B00DA11D661F829F13
:102580002227B00DA11D621F739FB00DA11D621FF8
:10259000839FA00D611D221F749F3327A00D611D15
:1025A000231F849F600D211D822F762F6A2F1124F7
:1025B0009F5750408AF0E1F088234AF0EE0FFF1F4A
:1025C000BB1F661F771F881F91505040A9F79E3F81
:1025D000510570F0F7CE9FCF5F3FECF3983EDCF3F0
:1025E000869577956795B795F795E7959F5FC1F7BE
:1025F000FE2B880F911D9695879597F908959F93C7
:102600001EDF0F9007FCEE5F52CF11F40EF4E0CE08
:1026100041C066DFD0F39923D9F3CEF39F57550B12
:1026200087FF46D00024A0E640EA900180585695E6
:10263000979528F4805C660F771F881F20F0261777
:102640003707480730F4621B730B840B20293129AC
:102650004A2BA69517940794202531254A2758F729
:10266000660F771F881F20F026173707480730F4BA
:10267000620B730B840B200D311D411DA09581F75A
:10268000B901842F9158880F9695879508959B01DD
:10269000AC0152CF9F3F31F0915020F48795779550
:1026A0006795B795880F911D9695879597F9089529
:1026B00091505040660F771F881FD2F708959F935F
:1026C0008F937F936F93FF93EF939B01AC0134DF64
:1026D000EF91FF9180DE2F913F914F915F912CCF31
:1026E000629FD001739FF001829FE00DF11D649FF6
:1026F000E00DF11D929FF00D839FF00D749FF00D82
:10270000659FF00D9927729FB00DE11DF91F639F22
:10271000B00DE11DF91FBD01CF0111240895A1E203
:102720001A2EAA1BBB1BFD010DC0AA1FBB1FEE1F4B
:10273000FF1FA217B307E407F50720F0A21BB30B96
:10274000E40BF50B661F771F881F991F1A9469F712
:1027500060957095809590959B01AC01BD01CF016E
:062760000895F894FFCF7C
:102766002C00000900436869702052657365740087
:102776002053747265616D3A2073697A653D002055
:102786005B005D00303132333435363738394142FB
:1027960043444546016E000000960000002C0100EF
:1027A60000B004000060090000C01200008025008F
:1027B60000004B00000096000000E1000000C2018E
:0E27C60000008403000008070000100E000051
:00000001FF
