:100000000C9478000C9495000C9495000C94950039
:100010000C9495000C9495000C9495000C9495000C
:100020000C9495000C94440F0C9495000C9495003E
:100030000C9495000C94B9060C9495000C949500C2
:100040000C9495000C9495000C9495000C949500DC
:100050000C9495000C9495000C9495000C949500CC
:100060000C9449090C9495000C9495000C949500FF
:100070000C9495000C9495000C949500084AD73B7D
:100080003BCE016E84BCBFFDC12F3D6C74319ABD67
:1000900056833DDA3D00C77F11BED9E4BB4C3E918B
:1000A0006BAAAABE000000803F072C7AA5BA6CC5D7
:1000B00090DA3B9365FC8BBC53F810FD3C56928361
:1000C0004DBD879D3AB63DCBC9BF5BBE73DA0FC944
:1000D0003F05A84CCDB2D44EB93836A9020C50B960
:1000E000918688083CA6AAAA2ABE000000803F008C
:1000F00011241FBECFEFD0E1DEBFCDBF13E0A0E0E3
:10010000B1E0E4E3FDE202C005900D92A63FB10725
:10011000D9F714E0A6EFB3E001C01D92A835B107EE
:10012000E1F70E94A10D0C9498160C9400009B011D
:10013000AC0184E0220F331F441F551F8A95D1F76D
:1001400060E070E489E191E00E9476162150304031
:100150003093C5002093C4008091C10088608093D3
:10016000C1008091C2008F738093C2008091C20051
:100170008F7D8093C2008091C200877F8093C200F0
:100180008091C20086608093C2008091C1008B7F05
:100190008093C1000895982F8091C00085FFFCCF07
:1001A0009093C6008091C00086FFFCCF0895CF9346
:1001B000DF93EC0102C00E94CB0089918823D9F71C
:1001C000DF91CF9108950F931F93DF93CF93CDB716
:1001D000DEB72B970FB6F894DEBF0FBECDBF8E01F2
:1001E0000F5F1F4FA8010E94B40102C00E94CB0004
:1001F000F80181918F018823C9F72B960FB6F894E7
:10020000DEBF0FBECDBFCF91DF911F910F9108953B
:100210000F931F93CF93DF938C01EB0160E072EC9F
:1002200081E090E00E9497008091C10083FF15C09B
:100230008091C200807C89F48091C20085FD0DC050
:100240008091C20083FD09C08091C2008670863013
:1002500021F48091C10082FF06C060E875E280E071
:1002600090E00E949700CA30D105F4F486E592E050
:100270000E94D7008FE592E00E94D700B80188273E
:1002800077FD8095982F0E94E3008FE592E00E9411
:10029000D700BE01882777FD8095982F0E94E30044
:1002A00081E692E00E94D700CE010A978A35910537
:1002B000F0F486E592E00E94D7008FE592E00E947C
:1002C000D700B801882777FD8095982F0E94E3001A
:1002D0008FE592E00E94D700BE01882777FD8095C8
:1002E000982F0E94E30081E692E00E94D700C43676
:1002F000D105F4F086E592E00E94D7008FE592E008
:100300000E94D700B801882777FD8095982F0E941A
:10031000E3008FE592E00E94D700BE01882777FDB9
:100320008095982F0E94E30081E692E00E94D7001A
:10033000DF91CF911F910F91089581E08093880202
:100340000895109288020895E82FF0E0EF70F070A1
:10035000E858FD4F8081089582958F70E8E7F2E0BC
:10036000E80FF11D808108954F925F926F927F9206
:100370008F929F92AF92BF92CF92DF92EF92FF92B5
:100380000F931F93CF93DF933B014C01EA018091C0
:100390008802882309F440C0611471048104910427
:1003A000C1F15524A12C8AECB82E8AE9C82E8BE322
:1003B000D82E4424C401B301A60195010E947616EB
:1003C00079018A01E114F1040105110511F44420B9
:1003D00079F08E2D805D8993C801B701A601950142
:1003E0000E945716661A770A880A990A4424439489
:1003F00053948AE0581679F0C601B5012AE030E03E
:1004000040E050E00E947616C901DA015C016D01FE
:10041000D1CF80E389931882DF91CF911F910F9103
:10042000FF90EF90DF90CF90BF90AF909F908F9014
:100430007F906F905F904F900895EF92FF920F938F
:100440001F93DF93CF93CDB7DEB72B970FB6F894FA
:10045000DEBF0FBECDBF7B018C0180918802882357
:10046000E9F017FF0BC010950095F094E094E11CA3
:10047000F11C011D111D8DE20E948E07C801B701FC
:100480008E010F5F1F4FA8010E94B40102C00E949D
:100490008E07F80181918F018823C9F72B960FB63B
:1004A000F894DEBF0FBECDBFCF91DF911F910F91AA
:1004B000FF90EF9008950F931F93DF93CF93CDB7E5
:1004C000DEB72B970FB6F894DEBF0FBECDBF9B01F2
:1004D000AC0180918802882381F0CA01B9018E01A4
:1004E0000F5F1F4FA8010E94B40102C00E948E0737
:1004F000F80181918F018823C9F72B960FB6F894E4
:10050000DEBF0FBECDBFCF91DF911F910F91089538
:10051000AF92BF92CF92DF92EF92FF920F931F9311
:100520005B016C0180918802882309F45BC0C601DD
:10053000B50120E030E040E85FEB0E947815181626
:100540006CF4C601B50120E030E040E050E00E94CC
:10055000AD1388231CF48DE20E948E07C601B501FD
:100560000E941C147B018C01C8010E941D028EE2B6
:100570000E948E07C601B50120E030E04AE754E44E
:100580000E9483150E941C145B016C01B701C80115
:1005900028EE33E040E050E00E945716A61AB70A52
:1005A000C80AD90AD7FE08C0D094C094B094A094C9
:1005B000A11CB11CC11CD11C84E6A816B104C10445
:1005C000D10464F480E30E948E078AE0A816B10487
:1005D000C104D1041CF480E30E948E07C601B5015A
:1005E0000E945B021F910F91FF90EF90DF90CF90E0
:1005F000BF90AF900895CF93DF939C0180918802C4
:10060000882339F0E90102C00E948E07899188236E
:10061000D9F7DF91CF910895982F80918802882390
:1006200019F0892F0E948E070895CF92DF92EF92E2
:10063000FF920F931F93CF93DF936C018B0184E69E
:1006400092E00E94FB02B80180E090E00E945B0211
:1006500083E792E00E94FB02C0E0D0E078010894BA
:10066000E108F10810C0F601EC0FFD1F608170E099
:1006700080E090E00E945B02CE15DF0518F48CE26A
:100680000E940C032196C017D10768F386E792E019
:100690000E94FB02DF91CF911F910F91FF90EF908D
:1006A000DF90CF9008950F931F93CF93DF93182F70
:1006B000092F80918802882381F08AE00E948E07AA
:1006C0008DE00E948E07812F902F9C01E90102C0CE
:1006D0000E948E0789918823D9F7DF91CF911F91CE
:1006E0000F91089591B121E030E002C0220F331F35
:1006F0008A95E2F7822F8095892381B9EEE7F0E0B1
:100700008081282B208380917C008F7780937C00D0
:1007100080917C00806480937C0080917A0084606A
:1007200080937A0080917A00826080937A00809131
:100730007A00816080937A0080917A00806880934B
:100740007A00089591B121E030E002C0220F331FFA
:100750008A95E2F7922B91B9EEE7F0E0808120953F
:100760002823208310927900E8E7F0E010821182BC
:100770001082089590917C00907E90937C009091DF
:100780007C00982B90937C0080917A008064809309
:100790007A0080917A0086FDFCCF2091780030911C
:1007A0007900C90108950F931F938B0190912B003D
:1007B0009F7E90932B0080630E944D07C80124E028
:1007C000969587952A95E1F70E944D07802F82958F
:1007D000807F0E944D0780912B00806180932B00C9
:1007E0001F910F9108951F93182FCB01BA0120E09C
:1007F00030EC4CEC54E40E9483150E9421149B01C0
:10080000AC01812FB9010E94D3031F9108950E946A
:100810001A0780912A00806180932A0080912B0022
:100820008F7E80932B008FE60E944D0780E00E9410
:100830004D0780E00E944D0780912B0080618093DE
:100840002B00089520E030E040E050E020931D04AC
:1008500030931E0440931F045093200420931904E6
:1008600030931A0440931B0450931C0420932504D6
:1008700030932604409327045093280420932104A6
:10088000309322044093230450932404609329045A
:1008900070932A0480932B0490932C040895CF9294
:1008A000DF92EF92FF920F931F938834C9F4409325
:1008B00001045093020460930304709304040093B2
:1008C0000504109306042093070430930804C09293
:1008D0000904D0920A04E0920B04F0920C041AC0AE
:1008E0008C34C1F440930D0450930E0460930F04B4
:1008F00070931004009311041093120420931304B6
:1009000030931404C0921504D0921604E092170498
:10091000F09218041F910F91FF90EF90DF90CF900D
:1009200008952F923F924F925F926F927F928F9293
:100930009F92AF92BF92CF92DF92EF92FF920F936E
:100940001F93DF93CF93CDB7DEB764970FB6F894BC
:10095000DEBF0FBECDBF182F641B750B882777FD38
:100960008095982F0E944F1469837A838B839C8390
:10097000183409F0F0C0E0902104F09022040091B6
:100980002304109124042091290430912A044091D9
:100990002B0450912C040E9483159B01AC01C801CB
:1009A000B7010E9421136093210470932204809365
:1009B0002304909324046091210470912204809177
:1009C00023049091240420E030E048EC52E40E949B
:1009D0007815181664F480E090E0A8ECB2E48093F7
:1009E000210490932204A0932304B09324046091E3
:1009F000210470912204809123049091240420E02A
:100A000030E048EC52EC0E94AD13882364F480E09F
:100A100090E0A8ECB2EC8093210490932204A09380
:100A20002304B09324042090190430901A044090B9
:100A30001B0450901C042091290430912A044091F9
:100A40002B0450912C04298B3A8B4B8B5C8B898126
:100A50009A81AB81BC818093190490931A04A0936E
:100A60001B04B0931C0460910104709102048091F6
:100A7000030490910404A0900504B0900604C09073
:100A80000704D090080460902104709022048090A4
:100A90002304909024042091090430910A04409189
:100AA0000B0450910C042D873E874F87588B29816A
:100AB0003A814B815C810E9483157B018C01C601C8
:100AC000B501A40193010E9483159B01AC01C801EB
:100AD000B7010E9421137B018C0169817A818B818E
:100AE0009C81A20191010E94201329893A894B8996
:100AF0005C890E94B4139B01AC016D857E858F8556
:100B000098890E9483159B01AC01C801B7010E941E
:100B100021130E941C14709332046093310480915D
:100B20003104909132048050904134F08FEF9FE077
:100B30009093320480933104809131049091320477
:100B40008150904F0CF0FCC081E090EF9093320404
:100B500080933104F5C01C3409F0F2C0E090250404
:100B6000F090260400912704109128042091290474
:100B700030912A0440912B0450912C0469817A8190
:100B80008B819C810E9483159B01AC01C801B70138
:100B90000E942113609325047093260480932704F8
:100BA0009093280460912504709126048091270475
:100BB0009091280420E030E048EC52E40E9478153F
:100BC000181664F480E090E0A8ECB2E48093250469
:100BD00090932604A0932704B093280460912504E1
:100BE00070912604809127049091280420E030E041
:100BF00048EC52EC0E94AD13882364F480E090E04E
:100C0000A8ECB2EC8093250490932604A0932704CB
:100C1000B093280420901D0430901E0440901F04BF
:100C2000509020048091290490912A04A0912B04D3
:100C3000B0912C0489879A87AB87BC8729813A8138
:100C40004B815C8120931D0430931E0440931F044C
:100C50005093200460910D0470910E0480910F0454
:100C600090911004A0901104B0901204C09013044D
:100C7000D09014046090250470902604809027047E
:100C80009090280420911504309116044091170487
:100C9000509118042D833E834F83588729813A81D0
:100CA0004B815C810E9483157B018C01C601B501DB
:100CB000A40193010E9483159B01AC01C801B701F7
:100CC0000E9421137B018C0169817A818B819C8137
:100CD000A20191010E94201329853A854B855C85EC
:100CE0000E94B4139B01AC016D817E818F81988538
:100CF0000E9483159B01AC01C801B7010E9421131A
:100D00000E941C1470933404609333048091330464
:100D1000909134048050904134F08FEF9FE0909395
:100D200034048093330480913304909134048150CF
:100D3000904F34F481E090EF909334048093330427
:100D400064960FB6F894DEBF0FBECDBFCF91DF9192
:100D50001F910F91FF90EF90DF90CF90BF90AF90D9
:100D60009F908F907F906F905F904F903F902F90CB
:100D700008951F920F920FB60F9211242F933F9355
:100D80004F935F936F937F938F939F93AF93BF9393
:100D9000EF93FF9390913604809135049817D0F02B
:100DA0001092360460912D0470912E0440914204FB
:100DB0005091430488E40E94910460912F04709143
:100DC000300440914004509141048CE40E9491040D
:100DD0000E94C408809136048F5F80933604FF918F
:100DE000EF91BF91AF919F918F917F916F915F91A3
:100DF0004F913F912F910F900FBE0F901F9018951C
:100E000081E0809335041092360461E040E05AE5B9
:100E10000E943D12809181008B7F809381008091A0
:100E20008100826080938100809181008E7F809319
:100E3000810008958091240080688093240080912F
:100E40002400806280932400809124008F7B809313
:100E500024008091240080618093240080912500EB
:100E600080618093250080914C00806480934C00C9
:100E700080914C00806180934C0080914C008E7F6B
:100E800080934C0080914C00826080934C00809154
:100E90004D00816080934D0008958EBD0DB407FE16
:100EA000FDCF8EB508959B01AC01E9E8F2E08081A9
:100EB0009181A281B381281739074A075B0749F05E
:100EC000349682E0ED3BF80791F720E032EC41E008
:100ED00050E064E0220F331F441F551F6A95D1F77D
:100EE00060E070E489E191E00E947616C901DA01C0
:100EF0000197A109B109292F3A2F4B2F55270196A8
:100F0000A11DB11D2093CD0081508093CC0088E1BC
:100F10008093C9008EE08093CA000895982F809135
:100F2000C80085FFFCCF9093CE0008958091C80043
:100F300087FFFCCF8091CE000895883499F46091AA
:100F400042047091430480E090E00E944D1420E040
:100F500030E04AE254E40E94201328E837E847E8EA
:100F60005EE319C08C3429F0E0E070E080E060E0DE
:100F700016C0609140047091410480E090E00E94AE
:100F80004D1420E030E04CE853E40E94201322EBA3
:100F900030E945E85EE30E948315E62F692F2E2F86
:100FA000372F482F562FB901CA0108958834A9F464
:100FB000CB01BA012CE137EC41E750E40E948315E4
:100FC00020E030E04AE254E40E9421130E94211400
:100FD00070932E0460932D0408958C34A1F4CB01FA
:100FE000BA0125E535E545E750E40E94831520E088
:100FF00030E04CE853E40E9421130E9421147093C6
:10100000300460932F040895883499F460912D047E
:1010100070912E0480E090E00E944D1420E030E0BA
:101020004AE254E40E94201328E837E847E85EE3E8
:1010300019C08C3429F0E0E070E080E060E016C078
:1010400060912F047091300480E090E00E944D1474
:1010500020E030E04CE853E40E94201322EB30E91A
:1010600045E85EE30E948315E62F692F2E2F372F68
:10107000482F562FB901CA01089588E40E949D07A0
:101080000E941C140E941D0280E091E00E94FB025D
:101090008CE40E949D070E941C140E941D0282E0A5
:1010A00091E00E9453030895AF92BF92CF92DF92D6
:1010B000EF92FF920F931F93DF93CF93CDB7DEB7DD
:1010C00028970FB6F894DEBF0FBECDBF5B016C0151
:1010D00079018A01CE010196BE016B5F7F4FA601A7
:1010E00095010E949D0B49815A816B817C818CE422
:1010F0000E94D6074D815E816F81788588E40E94C9
:10110000D60728960FB6F894DEBF0FBECDBFCF919D
:10111000DF911F910F91FF90EF90DF90CF90BF90E4
:10112000AF900895CF93DF93EB018C3491F477FD6A
:1011300005C080E00E94D30381E01FC080E060E032
:1011400070E00E94D303662777276C1B7D0B81E03C
:1011500016C08834B1F477FD08C082E060E070E02A
:101160000E94D30383E0BE010AC0662777276C1B69
:101170007D0B82E00E94D30383E060E070E00E9478
:10118000D303DF91CF910895EF92FF920F931F93B6
:10119000E0903104F090320488E40E949D0725E33A
:1011A0003AEF4EE85CE30E9483150E94B1130E945F
:1011B0001C1404EF11E0CB01809FB001819F700DE2
:1011C000909F700D11246E0D7F1D88E40E9492087F
:1011D000E0903304F09034048CE40E949D0725E3F2
:1011E0003AEF4EE85CE30E9483150E94B1130E941F
:1011F0001C14CB01809FB001819F700D909F700DDA
:1012000011246E0D7F1D8CE40E9492081F910F9196
:10121000FF90EF9008958CE440E050E060E070E0D3
:101220000E94D60788E440E050E060E070E00E9451
:10123000D60702C00E94C40820912D0430912E04CC
:1012400080914204909143042817390799F720911F
:101250002F0430913004809140049091410428176C
:10126000390741F70E94230B08951F93182FCB01D4
:10127000BA0120E030EF4FE755E40E9483150E9449
:101280001C149B01AC01812FB9010E9492081F918F
:1012900008951F920F920FB60F9211242F938F93E0
:1012A0009F93EF93FF9380913704882321F120913E
:1012B0007C00277079F0E22FF0E080917800909127
:1012C0007900EE0FFF1FEB5CFB4F96838583273081
:1012D00051F00DC0809178009091790090934B046B
:1012E00080934A0404C080917C00807E36C0809147
:1012F0007C008F5F32C080913804882309F443C09A
:1013000020917C00277080913904821758F4E22FD5
:10131000F0E08091780090917900EE0FFF1FEB5C78
:10132000FB4F0BC0E0913A04F0E08091780090917F
:101330007900EE0FFF1FE95CFB4F96838583809158
:101340007C00807E80937C0080913A04281740F0D6
:1013500090917C0080913904892B80937C001EC081
:10136000E22FEF5F8091380490E00E2E02C0959539
:1013700087950A94E2F780FFF4CF80917C00E82BF8
:10138000E0937C000BC0809178009091790090935D
:101390004D0480934C0481E080933B04FF91EF91D6
:1013A0009F918F912F910F900FBE0F901F901895C6
:1013B0000F931F93CF93DF93982F882309F45FC077
:1013C000F89481E08093370490933804C0E0D0E033
:1013D000092F10E0C8010C2E02C0959587950A943C
:1013E000E2F780FF03C08C2F0E9472032196C83061
:1013F000D10581F780917A00806280937A00809194
:101400007B008E7F80937B0080917B008D7F80931B
:101410007B0080917B008B7F80937B0080917A00A2
:10142000886080937A0080917C00807E80937C002D
:1014300020E001C02F5FC801022E02C0959587955C
:101440000A94E2F780FFF6CF80917C00822B809394
:101450007C002093390427E001C02150C801022EEE
:1014600002C0959587950A94E2F780FFF6CF209306
:101470003A0480917A00806480937A007894DF91B6
:10148000CF911F910F9108951F93F89481E080935D
:1014900037041092380410E0812F0E9472031F5FFE
:1014A0001830D1F780917A00806280937A00809121
:1014B0007B008E7F80937B0080917B008D7F80936B
:1014C0007B0080917B008B7F80937B0080917A00F2
:1014D000886080937A0080917C00807E80937C007D
:1014E00080917A00806480937A0078941F910895A7
:1014F0001F93182FF89410923704109238040E940A
:10150000720380917A00806280937A0080917B00E0
:101510008E7F80937B0080917B008D7F80937B000A
:1015200080917B008B7F80937B0080917A00886024
:1015300080937A00ECE7F0E08081807E8083808178
:10154000812B808380917A00806480937A007894E4
:101550001F910895AA2797FDA095BA2FBC01CD0130
:101560000E944F142AE038E240EA5BE30E948315B0
:1015700020E030E040E250E40E94201320E030E020
:1015800040EA51E40E94B4132DEC3CEC4CE45DE3E2
:101590000E94B41308951F93CF93DF93EC01883416
:1015A000910531F08C34910519F02FEF3FEF2FC0EA
:1015B00098B1C834D10511F08FED01C08FEE8923A9
:1015C00088B998B1C834D10511F08FED01C08FEE04
:1015D000892388B980E60E944D078FEF0E944D074E
:1015E000182F8FEF0E944D07282F98B1C834D105CE
:1015F00011F080E201C080E1892B88B9912F80E051
:1016000030E0822B932B22273327281B390BC9016B
:10161000DF91CF911F9108951F93182F98B18834AF
:1016200011F08FED01C08FEE892388B980E20E940E
:101630004D0798B1183411F080E201C080E1892B88
:1016400088B91F91089588E40E940C0B8CE40E94D5
:101650000C0B08951F93182F0E941A0797B1183486
:1016600011F080E201C080E1892B87B998B118346C
:1016700011F080E201C080E1892B88B998B118345B
:1016800011F08FED01C08FEE892388B980E20E94AE
:101690004D0798B1183411F080E201C080E1892B28
:1016A00088B998B1183411F08FED01C08FEE8923FD
:1016B00088B988E80E944D0781E00E944D0798B1E3
:1016C000183411F080E201C080E1892B88B998B10B
:1016D000183411F08FED01C08FEE892388B980E9AD
:1016E0000E944D0782E00E944D0798B1183411F016
:1016F00080E201C080E1892B88B91F91089588E4B8
:101700000E942A0B8CE40E942A0B089510924F0429
:1017100010924E04109251041092500481E090E017
:1017200090935304809352041092550410925404E1
:10173000109257041092560408952F923F924F92A0
:101740005F926F927F928F929F92AF92BF92CF9251
:10175000DF92EF92FF920F931F93DF93CF9300D00E
:1017600000D0CDB7DEB79A8389837C836B83390140
:101770004A01CA01B9010E9483155B016C01C801CD
:10178000B701A80197010E9483159B01AC01C60116
:10179000B5010E9421135B016C0120E038E441EDAA
:1017A00056E40E94201320E030E04CEC56E40E9406
:1017B000B4130E9412139058EB81FC8160837183F3
:1017C00082839383C801B701A40193010E94B413DB
:1017D0000E9485131B012C01C601B5010E94F01562
:1017E0003B014C01C601B50120E030E040E856E481
:1017F0000E94211320E030E942E256E40E942013C7
:101800007B018C01C401B30120E030E040E853E4E7
:101810000E9483159B01AC01C801B7010E94B4135B
:101820000E9412139B01AC01C201B1010E9421135D
:10183000E981FA816083718382839383EB81FC81E8
:10184000608171818281938121EE3EE245E652E41E
:101850000E948315EB81FC81608371838283938373
:10186000E981FA81608171818281938121EE3EE27A
:1018700045E652E40E948315E981FA816083718311
:10188000828393830F900F900F900F90CF91DF91F1
:101890001F910F91FF90EF90DF90CF90BF90AF908E
:1018A0009F908F907F906F905F904F903F902F9080
:1018B00008952F923F924F925F926F927F928F92F4
:1018C0009F92AF92BF92CF92DF92EF92FF920F93CF
:1018D0001F93DF93CF9300D000D0CDB7DEB79C83AA
:1018E0008B837A83698339014A01CA01B90125E3EF
:1018F0003AEF4EE85CE30E9483155B016C01C60180
:101900000E94B1131B012C01C401B301A80197016E
:101910000E94211325E33AEF4EE85CE30E94831511
:101920007B018C01C8010E94B1133B014C01C20133
:10193000B10120E030E040E053E40E9483151B0138
:101940002C01C401B30120E030E04CEC52E40E94D1
:1019500083159B01AC01C201B1010E942113EB81EF
:10196000FC816083718382839383B501C6010E94E9
:10197000E6155B016C01B701C8010E94E6157B0109
:101980008C01C601B50120E030E040E053E40E9444
:1019900083155B016C01C801B70120E030E04CEC1D
:1019A00052E40E9483159B01AC01C601B5010E945F
:1019B0002113E981FA8160837183828393830F907D
:1019C0000F900F900F90CF91DF911F910F91FF908B
:1019D000EF90DF90CF90BF90AF909F908F907F90CF
:1019E0006F905F904F903F902F900895AF92BF926D
:1019F000CF92DF92EF92FF920F931F9321E08633F5
:101A0000920710F480E991E0BC0180E090E00E9430
:101A10004D147B018C0127E137EB41E558E30E942F
:101A20008315A80197010E9483155B016C01C80111
:101A3000B70122EE38E547E95DEB0E9483159B0173
:101A4000AC01C601B5010E9421132FE73AE646E03A
:101A500052E40E9421131F910F91FF90EF90DF90AD
:101A6000CF90BF90AF90089581E090E064EB70E07C
:101A70000E940801089581E090E060E070E00E941B
:101A80000801089580E090E06CE370E00E94080196
:101A90000895CF92DF92EF92FF920F931F9381E010
:101AA00090E060E070E00E94080183E091E00E9415
:101AB00053030E9407046AE077ED83E29CE30E94EF
:101AC00022048FE30E94D80988E440E050E060EFF0
:101AD00071E400E010E020EA30E40F2EFDECCF2EA0
:101AE000FCECDF2EFCECEF2EFDE3FF2EF02D0E9430
:101AF0004F048CE440E050E064E372E400E010E066
:101B000020E83FE30E944F048CE440E050E060E0B6
:101B100070E00E94D60788E440E050E060E070E0AA
:101B20000E94D6070E94000780E090E06CE370E01E
:101B30000E9408011F910F91FF90EF90DF90CF90CE
:101B400008951F9360E072EC81E090E00E945307DB
:101B50000E94860B8EE091E00E94530310E0812FDB
:101B60000E948F10812F0E94FF0F182F0E943D08A6
:101B7000F6CF2F923F924F925F926F927F928F9209
:101B80009F92AF92BF92CF92DF92EF92FF920F930C
:101B90001F93DF93CF93CDB7DEB7C653D1400FB6B7
:101BA000F894DEBF0FBECDBF1C01DE011196E1EC43
:101BB000F2E084E391E001900D920197E1F7CC24EB
:101BC000DD2403C00894C11CD11CF101EC0DFD1DE6
:101BD000E081E032B9F3EA30A9F3E93099F3EB326E
:101BE00011F0ED3271F40894C11CD11CEB3249F0B4
:101BF0002FEF3FEFCB5CDE4F39832883C553D140B5
:101C000008C081E090E0CB5CDE4F99838883C553A8
:101C1000D14021014C0C5D1C29E9822E912C8C0EA7
:101C20009D1E96E2A92EB12C0F2EF0E0EF2EF0E0D3
:101C3000FF2EF0E00F2FF0E01F2FF02D27C0B7FC94
:101C400018C070E060537040882777FD8095982F0A
:101C50000E944F14F40120813181428153810E94FE
:101C600083159B01AC01C801B7010E9421137B01C0
:101C70008C010894A108B1080894C11CD11C0894D7
:101C8000411C511C2CEF3FEF820E931E8BE4682EFB
:101C9000712C6A187B08F2016081862F80538A308C
:101CA00070F26E3219F40894C11CD11C21014C0C45
:101CB0005D1CC501880F991F880F991F4E0108945C
:101CC000811C911C880E991E27C0B7FC18C070E0BB
:101CD00060537040882777FD8095982F0E944F149D
:101CE000F40120813181428153810E9483159B013F
:101CF000AC01C801B7010E9421137B018C0108943B
:101D0000A108B1080894C11CD11C0894411C511CA5
:101D10002CEF3FEF820E931EF2016081862F8053DD
:101D20008A3098F2653639F0653429F0643619F056
:101D3000643409F043C0C6010196F101E80FF91FB0
:101D4000E081EB3211F0ED3231F40196EB3219F013
:101D50006FEF7FEF02C061E070E0F101E80FF91F63
:101D600020E030E010C0C901A3E0880F991FAA95B8
:101D7000E1F7220F331F820F931F242F30E02053EF
:101D80003040280F391F4191842F80538A3058F3F7
:101D9000269FC001279F900D369F900D1124680E3D
:101DA000791E77FE0BC00F2EF0E0EF2EF0E0FF2E35
:101DB000F0E00F2FF0E01F2FF02D23C0FCE46F1692
:101DC000710474F02CE462167104D9F4C801B701EF
:101DD0002DED37EC49ED5FE30E94AD1388238CF4C1
:101DE000660C771C660C771C6C0E7D1EC801B70153
:101DF000F30121813281438154810E9483157B014B
:101E00008C01CB5CDE4F28813981C553D140B901AB
:101E1000882777FD8095982F0E944F14A80197017D
:101E20000E948315CA5CDE4F0FB6F894DEBF0FBE6A
:101E3000CDBFCF91DF911F910F91FF90EF90DF9079
:101E4000CF90BF90AF909F908F907F906F905F905A
:101E50004F903F902F9008958091B1008B7F809399
:101E6000B1008091B1008D7F8093B1008091B1006D
:101E70008E7F8093B10010925304109252041092FE
:101E800055041092540408951F920F920FB60F92AA
:101E900011242F933F938F939F9320914E04309161
:101EA0004F0480915004909151042817390750F045
:101EB00010924F0410924E0481E090E090935304EE
:101EC0008093520480914E0490914F040196909318
:101ED0004F0480934E049F918F913F912F910F90CB
:101EE0000FBE0F901F90189520E030E046E953E4B4
:101EF0000E9483150E942114709351046093500432
:101F000010924F0410924E041092530410925204F7
:101F100082E061E040EF50E00E943D128091B1000C
:101F200084608093B1008091B10082608093B100A1
:101F30008091B1008E7F8093B10081E090E090931A
:101F400055048093540408951F93182F8091F6032D
:101F5000811709F450C01730A9F1183088F41230F5
:101F600029F1133030F41123D9F0113009F03FC0BA
:101F70001AC0143009F11430E0F01530C1F51FC05B
:101F80001A3049F11B3028F41830F9F0193079F57E
:101F90001FC01C3031F11C3008F11D3041F524C048
:101FA00089E191E026C084E291E023C08EE291E0D5
:101FB00020C08DE391E01DC088E591E01AC088E65D
:101FC00091E017C080E891E014C089E991E011C068
:101FD00088EA91E00EC083EB91E00BC080EC91E0C9
:101FE00008C081ED91E005C08EED91E002C08BEE5E
:101FF00091E00E9453031093F6031F910895282F38
:102000008091540490915504892B39F080915204A9
:1020100090915304892B09F480C0263009F440C004
:10202000273088F4223009F1233038F4222309F4D0
:1020300058C0213009F050C056C0243009F455C0B2
:10204000253028F51BC02A3009F440C02B3028F475
:102050002830C1F12930C0F52CC02C3009F43AC029
:102060002C30B0F12D30C1F53CC0809144049091EA
:10207000450487539140D0F123E038C08091440457
:10208000909145048753914070F124E02FC08091D6
:102090004604909147048550914040F126E026C0C7
:1020A000809146049091470485509140F0F027E0DC
:1020B0001DC0809146049091470484509140B0F433
:1020C00028E014C029E012C02AE010C02BE00EC0A6
:1020D0002CE00CC02DE00AC089EF91E00E94530370
:1020E000FFCF21E003C022E001C025E08091B100D4
:1020F0008B7F8093B1008091B1008D7F8093B10080
:102100008091B1008E7F8093B100109253041092A1
:1021100052041092550410925404822F08959F92F5
:10212000AF92BF92CF92DF92EF92FF920F931F93E5
:10213000982E86E0981609F476C08915A8F082E0FA
:10214000981609F48EC1891538F0992039F181E08B
:10215000981609F081C12AC084E0981609F440C09D
:10216000891508F47EC136C08AE0981609F48FC03C
:10217000891540F088E0981609F465C0891508F4BF
:102180007AC057C08CE0981609F4B7C0981608F4C6
:10219000AAC08DE0981609F05FC145C10E94490DA3
:1021A00080910004882309F45CC138C188E440E0D0
:1021B00050E065EA72EC0E94D6078CE440E050E003
:1021C0006AE172E40E94D60780910004813009F42C
:1021D00048C124C180910004833009F442C135C153
:1021E00080914404909145040E94F60C20E030E078
:1021F00040EB50E40E94211320E030E040E251E443
:102200000E9483159B01AC012093FB033093FC03D8
:102210004093FD035093FE0320E030E040E751E49B
:102220000E9454081EC180910004863009F419C12F
:102230000CC180910004873009F413C16DEC7CEC73
:102240008CE49DE306C16091FB037091FC038091D7
:10225000FD039091FE0320E030E044E152EC0E9447
:10226000540880910004883009F4FBC06AE979E9D8
:1022700089E99EE3EEC00E94340D8091000489300C
:1022800009F4EFC06DEC7CEC8CEC9EE3E2C060E006
:1022900070E088E593E420E030E044E352E40E94FB
:1022A0005408E090F703F090F8030091F9031091BF
:1022B000FA0380913E0490913F040E94AA0A9B0178
:1022C000AC01C801B7010E9421136093F70370931A
:1022D000F8038093F9039093FA03809100048A3005
:1022E00009F4BFC09BC0809100048B3009F4B9C0D1
:1022F0006DEC7CEC8CEC9DE3ACC06091FB037091C9
:10230000FC038091FD039091FE0320E030E048EC57
:1023100053E40E947815181614F064E101C06CEEC5
:10232000A090F703B090F803C090F903D090FA039F
:1023300070E062587040882777FD8095982F0E9442
:102340004F147B018C01C601B501A80197010E94C1
:10235000AD1388231CF41092FF030BC0C601B50116
:10236000A80197010E94781518161CF481E080934B
:10237000FF03C601B5010E94880280E292E00E943C
:10238000FB028091FF03882319F0813041F403C0E0
:1023900082E292E002C088E292E00E94FB028EE2BA
:1023A00092E00E94530384E591E00E94F60C7B01C9
:1023B0008C0182EC91E00E94F60C9B01AC018091B3
:1023C000FF03882399F4C801B70120E030E040EB17
:1023D00050E40E94211320E030E040E251E40E94EA
:1023E000831520E030E04CEC51EC12C0CA01B90179
:1023F00020E030E040EB50E40E94211320E030E088
:1024000040E251E40E94831520E030E048EA51ECBC
:102410000E945408809100048C3019F160E070E053
:1024200080E09FE316C080E090E0A0E0B0E0809301
:10243000F7039093F803A093F903B093FA030E9473
:102440003B0D809100048D3061F06DEC7CEC8CE4F0
:102450009EE30E94740F05C08FE292E00E94530336
:10246000FFCF909200041F910F91FF90EF90DF90AB
:10247000CF90BF90AF909F900895982FF89481309F
:1024800009F1813020F0823009F055C039C016BC06
:10249000809145008B7F80934500809145008D7F22
:1024A0008093450080914500816080934500809134
:1024B0006E00816080936E00809135008160809312
:1024C000350039C0109285001092840080918100FF
:1024D0008B7F80938100809181008D7F809381002C
:1024E0008091810081608093810080916F00816084
:1024F00080936F00809136008160809336001BC00E
:102500001092B2008091B1008B7F8093B1008091D6
:10251000B1008D7F8093B1008091B1008160809384
:10252000B1008091700081608093700080913700CD
:10253000816080933700613009F061C0913009F10A
:10254000913020F0923009F05AC03EC08091440092
:102550008E7F809344008091440082608093440089
:1025600080914500877F8093450047BD80916E0034
:10257000826080936E008091350082608093350088
:102580003EC0809180008E7F80938000809180008B
:102590008D7F80938000809181008860809381008E
:1025A000809181008F7E80938100509389004093B9
:1025B000880080916F00826080936F008091360068
:1025C0008260809336001BC08091B0008E7F809324
:1025D000B0008091B00082608093B0008091B10023
:1025E000877F8093B1004093B30080917000826038
:1025F00080937000809137008260809337007894D8
:102600000895813039F0813018F0823051F407C0DC
:1026100067BD089570938900609388000895609362
:10262000B30008959F939F7775D10F9000203AF4DF
:102630009058A2EA2AED3FE049E450E413D00DC2DD
:102640005058BB27AA270ED008C2D1D130F0D6D11E
:1026500020F031F49F3F11F41EF4A1C10EF4E09577
:10266000E7FB97C1E92F1BD280F3BA176207730704
:102670008407950718F071F49EF533C20EF4E095C7
:102680000B2EBA2FA02D0B01B90190010C01CA012C
:10269000A0011124FF27591B99F0593F50F4503ED7
:1026A00068F11A16F040A22F232F342F4427585FC9
:1026B000F3CF469537952795A795F0405395C9F7E1
:1026C0007EF41F16BA0B620B730B840BBAF0915099
:1026D000A1F0FF0FBB1F661F771F881FC2F70EC038
:1026E000BA0F621F731F841F48F48795779567950B
:1026F000B795F7959E3F08F0B3CF9395880F08F0F4
:102700009927EE0F979587950895DF93DD27B92FC9
:10271000BF7740E85FE31616170648075B0710F41B
:10272000D92FEAD19F938F937F936F9397D2ECE742
:10273000F0E038D192D12F913F914F915F91EFD13D
:10274000DD2349F09058A2EA2AED3FE049EC5FE32F
:10275000D0785D2787DFDF9180C1F7D008F481E072
:10276000089554D1E3958AC10CD077C147D140F088
:102770003ED130F021F45F3F19F00BC15111B2C1CD
:102780000EC18DD198F39923C9F35523B1F3951B4D
:10279000550BBB27AA2762177307840738F09F5F82
:1027A0005F4F220F331F441FAA1FA9F333D00E2EF1
:1027B0003AF0E0E830D091505040E695001CCAF75E
:1027C00029D0FE2F27D0660F771F881FBB1F261723
:1027D00037074807AB07B0E809F0BB0B802DBF01F6
:1027E000FF2793585F4F2AF09E3F510568F0D1C0F4
:1027F00079C15F3FECF3983EDCF38695779567955A
:10280000B795F7959F5FC9F7880F911D96958795A6
:1028100097F90895E1E0660F771F881FBB1F6217C5
:1028200073078407BA0720F0621B730B840BBA0B83
:10283000EE1F88F7E095089504D06894B11152C155
:10284000089535D188F09F5790F0B92F9927B75147
:10285000A0F0D1F0660F771F881F991F1AF0BA9564
:10286000C9F712C0B13081F03CD1B1E0089539C14F
:10287000672F782F8827B85F39F0B93FCCF386955A
:1028800077956795B395D9F73EF4909580957095B7
:1028900061957F4F8F4F9F4F0895E89409C097FB34
:1028A0003EF490958095709561957F4F8F4F9F4F27
:1028B0009923A9F0F92F96E9BB279395F69587956B
:1028C00077956795B795F111F8CFFAF4BB0F11F42E
:1028D00060FF1BC06F5F7F4F8F4F9F4F16C08823D5
:1028E00011F096E911C0772321F09EE8872F762F0B
:1028F00005C0662371F096E8862F70E060E02AF04C
:102900009A95660F771F881FDAF7880F9695879537
:1029100097F90895DF93CF931F930F938B01EC01E9
:10292000E9EAF0E03FD099D09801AE018B01EC01CB
:1029300060E070E080E89FE383DE52D19801AE0151
:102940000F911F91CF91DF91EAC0990F0008550FA9
:10295000AA0BE0E8FEEF16161706E807F907C0F025
:1029600012161306E407F50798F0621B730B840B2D
:10297000950B39F40A2661F0232B242B252B21F407
:1029800008950A2609F4A140A6958FEF811D811DA7
:10299000089597F99F6780E870E060E008959FEFE1
:1029A00080EC0895DF93CF931F930F93FF92EF92E4
:1029B000DF927B018C01689405C0DA2EEF01AFD065
:1029C000FE01E894A5912591359145915591AEF37D
:1029D000EF0148DEFE019701A801DA9479F7DF9054
:1029E000EF90FF900F911F91CF91DF9108950024F8
:1029F0000A941616170618060906089500240A9464
:102A000012161306140605060895C9CF50D0E8F330
:102A1000E894E0E0BB279F57F0F02AED3FE049EC57
:102A200006C0EE0FBB0F661F771F881F28F0B23A53
:102A300062077307840728F0B25A620B730B840B8A
:102A4000E3959A9572F7803830F49A95BB0F661F1C
:102A5000771F881FD2F7904806C1092E0394000CF7
:102A600011F4882352F0BB0F40F4BF2B11F460FF28
:102A700004C06F5F7F4F8F4F9F4F0895EF93E0FF2C
:102A800006C0A2EA2AED3FE049EC5FEBEBDDE5DFB3
:102A90000F90039401FC9058E1EDF0E0F7C057FD72
:102AA0009058440F551F59F05F3F71F04795880FBC
:102AB00097FB991F61F09F3F79F087950895121653
:102AC00013061406551FF2CF4695F1DF08C01616FF
:102AD00017061806991FF1CF8695710561050894B0
:102AE0000895E894BB2766277727CB0197F90895C7
:102AF0002CDF08F48FEF08959B01AC0160E070E0DB
:102B000080E89FE331CE0BD0A8CF71DF28F076DFCD
:102B100018F0952309F03DCF42CF1124E3CFBFDF5A
:102B2000A0F3959FD1F3950F50E0551F629FF001E0
:102B3000729FBB27F00DB11D639FAA27F00DB11D39
:102B4000AA1F649F6627B00DA11D661F829F2227C2
:102B5000B00DA11D621F739FB00DA11D621F839F49
:102B6000A00D611D221F749F3327A00D611D231F1F
:102B7000849F600D211D822F762F6A2F11249F576D
:102B800050408AF0E1F088234AF0EE0FFF1FBB1F90
:102B9000661F771F881F91505040A9F79E3F51052F
:102BA00070F0F7CE9FCF5F3FECF3983EDCF3869555
:102BB00077956795B795F795E7959F5FC1F7FE2BDA
:102BC000880F911D9695879597F908959F931EDF1D
:102BD0000F9007FCEE5F52CF11F40EF4E0CE41C02F
:102BE00066DFD0F39923D9F3CEF39F57550B87FFB8
:102BF00046D00024A0E640EA90018058569597956B
:102C000028F4805C660F771F881F20F0261737078F
:102C1000480730F4621B730B840B202931294A2B9F
:102C2000A69517940794202531254A2758F7660F53
:102C3000771F881F20F026173707480730F4620BEC
:102C4000730B840B200D311D411DA09581F7B90137
:102C5000842F9158880F9695879508959B01AC0114
:102C600052CF9F3F31F0915020F48795779567952B
:102C7000B795880F911D9695879597F9089591506E
:102C80005040660F771F881FD2F708959F938F9348
:102C90007F936F93FF93EF939B01AC0134DFEF9130
:102CA000FF9180DE2F913F914F915F912CCF629FDA
:102CB000D001739FF001829FE00DF11D649FE00D34
:102CC000F11D929FF00D839FF00D749FF00D659F95
:102CD000F00D9927729FB00DE11DF91F639FB00D94
:102CE000E11DF91FBD01CF0111240895A1E21A2EA3
:102CF000AA1BBB1BFD010DC0AA1FBB1FEE1FFF1FA0
:102D0000A217B307E407F50720F0A21BB30BE40BEF
:102D1000F50B661F771F881F991F1A9469F7609536
:102D20007095809590959B01AC01BD01CF010895F0
:042D3000F894FFCF45
:102D34002C0000494E495449414C495A45004368C6
:102D4400697020526573657400494E495449414C79
:102D5400495A450052454144595F41524D0057413B
:102D640049545F464F525F424C4F434B00574149D1
:102D7400545F464F525F424C4F434B5F4E4F495353
:102D8400455F434845434B00505245505F464F52C0
:102D94005F5049434B555000574149545F464F5289
:102DA4005F524953494E475F545249474745520081
:102DB400574149545F464F525F46414C4C494E4738
:102DC4005F54524947474552004D4F56455F544F53
:102DD4005F5049434B555000475241425F424C4F6C
:102DE400434B005049434B55505F424C4F434B00BB
:102DF40044455445524D494E455F5745494748540B
:102E0400004D4F56455F544F5F534F525400445248
:102E14004F505F544F5F534F525400556E6B6E6F5B
:102E2400776E207374617465004D495353494E475E
:102E3400205354415445204552524F522032202DA4
:102E44002050524F4752414D2048414C5445440074
:102E540009004845415659004C4947485400004D23
:102E6400495353494E4720535441544520455252E7
:102E74004F522031202D2050524F4752414D20486F
:102E8400414C54454400536574736572766F003A3F
:102E9400000D0A002053747265616D3A2073697ADB
:102EA400653D00205B005D00303132333435363708
:102EB4003839414243444546016E00000096000003
:102EC400002C010000B004000060090000C01200E2
:102ED4000080250000004B00000096000000E10087
:102EE4000000C20100008403000008070000100E67
:102EF40000EEE36C00EA1C08022524AA032EAD545C
:102F0400053DEC04074C27A6081FB14F0AB3CE01B8
:102F14000C6042A20DF8D24A0FB687FD10D2749EFF
:102F240012061246148896F71515BE9A179A6D4123
:102F34001901C9F11AA01D971C08E53C1E4A1EEC94
:102F44001FEF929321AA7738239595E6247D1D904F
:102F540026DC243428132EE129CCBC8C2BFFEB2F48
:102F64002DFFE6DB2E5F70893077CC2B3295BFD6F0
:102F740033BD378635ACC5273717B7D1386F1283C1
:102F84003A0AD7233CCDCCCC3D0000803F00002042
:102F9400410000C84200007A4400401C460050C36F
:102FA40047002474498096184B20BCBE4C286B6E95
:102FB4004EF9021550B743BA51A5D46853E78411AA
:102FC4005521E6B556A95F6358CA1B0E5ABCA2B177
:102FD4005B6B0B5E5D23C70A5FEC78AD6027D75847
:102FE40062788607641668A9651CC2536751590440
:102FF40069A66FA56A8FCB4E6C393F016E088FA10D
:103004006FCAF249717C6FFC72AEC59D7419374565
:1030140076DF84F6770C139A79CE97407BC2BDF0A5
:063024007C9976967E0007
:00000001FF
