:100000000C943E000C9450000C9450000C94500042
:100010000C9450000C9450000C9450000C94500020
:100020000C9450000C9450000C9450000C94500010
:100030000C9450000C9450000C9450000C94500000
:100040000C9450000C9450000C9450000C945000F0
:100050000C9450000C9450000C9450000C945000E0
:100060000C9450000C9450000C9450000C945000D0
:100070000C9450000C9450000C94500011241FBE9E
:10008000CFEFD0E1DEBFCDBF11E0A0E0B1E001C015
:100090001D92A430B107E1F70E9464000C940202A3
:1000A0000C94000080E090E0A0E0B0E080930001BC
:1000B00090930101A0930201B093030108950E945F
:1000C00052000E946D0008950E945F0060E070E0A1
:1000D00088EC92E40E947000F9CF8FEF84B9089504
:1000E000AF92BF92CF92DF92EF92FF920F931F9346
:1000F0005B016C018FEF85B9C601B50120E030E0EE
:1001000040E955E40E9477017B018C0120E030E05A
:1001100040E85FE30E94F60088231CF461E070E091
:1001200024C0C801B70120E03FEF4FE757E40E9429
:1001300073011816B4F4C601B50120E030E040E2C6
:1001400051E40E9477010E94FA008CEC91E005C016
:10015000FC013197F1F76150704061157105C1F7ED
:1001600007C0C801B7010E94FA00CB010197F1F75F
:1001700015B8C801B70120E030E040E85FE30E9415
:10018000F60088231CF461E070E024C0C801B701C8
:1001900020E03FEF4FE757E40E9473011816B4F4D4
:1001A000C601B50120E030E040E251E40E94770151
:1001B0000E94FA008CEC91E005C0FC013197F1F748
:1001C0006150704061157105C1F707C0C801B701E2
:1001D0000E94FA00CB010197F1F71F910F91FF9058
:1001E000EF90DF90CF90BF90AF9008952FD008F49C
:1001F00081E0089557D088F09F5790F0B92F992744
:10020000B751A0F0D1F0660F771F881F991F1AF021
:10021000BA95C9F712C0B13081F05ED0B1E008954F
:100220005BC0672F782F8827B85F39F0B93FCCF3D0
:10023000869577956795B395D9F73EF49095809517
:10024000709561957F4F8F4F9F4F0895990F0008CC
:10025000550FAA0BE0E8FEEF16161706E807F90798
:10026000C0F012161306E407F50798F0621B730B33
:10027000840B950B39F40A2661F0232B242B252BB4
:1002800021F408950A2609F4A140A6958FEF811D57
:10029000811D089557FD9058440F551F59F05F3F39
:1002A00071F04795880F97FB991F61F09F3F79F098
:1002B00087950895121613061406551FF2CF46951A
:1002C000F1DF08C0161617061806991FF1CF86959C
:1002D0007105610508940895E894BB276627772780
:1002E000CB0197F90895B2DF08F48FEF08950BD092
:1002F00078C069D028F06ED018F0952309F05AC064
:100300005FC01124EACFC6DFA0F3959FD1F3950F0C
:1003100050E0551F629FF001729FBB27F00DB11D89
:10032000639FAA27F00DB11DAA1F649F6627B00D19
:10033000A11D661F829F2227B00DA11D621F739F02
:10034000B00DA11D621F839FA00D611D221F749F10
:100350003327A00D611D231F849F600D211D822F57
:10036000762F6A2F11249F5750408AF0E1F088239E
:100370004AF0EE0FFF1FBB1F661F771F881F9150AB
:100380005040A9F79E3F510570F014C0A6CF5F3FC3
:10039000ECF3983EDCF3869577956795B795F795DE
:1003A000E7959F5FC1F7FE2B880F911D9695879566
:1003B00097F9089597F99F6780E870E060E00895E5
:1003C0009FEF80EC089500240A941616170618066D
:1003D0000906089500240A94121613061406050649
:1003E0000895092E0394000C11F4882352F0BB0FDA
:1003F00040F4BF2B11F460FF04C06F5F7F4F8F4F3D
:080400009F4F0895F894FFCF0F
:00000001FF
