:100000000C94B9000C94D6000C94D6000C94D60035
:100010000C94D6000C94D6000C94D6000C94D60008
:100020000C94D6000C94F00A0C94D6000C94D600D4
:100030000C94D6000C941F040C94D6000C94D6009B
:100040000C947A050C94D6000C94D6000C94D6002F
:100050000C94D6000C94D6000C94D6000C94D600C8
:100060000C9485070C94D6000C94D6000C94D60002
:100070000C94D6000C94D6000C94D600084AD73BBA
:100080003BCE016E84BCBFFDC12F3D6C74319ABD67
:1000900056833DDA3D00C77F11BED9E4BB4C3E918B
:1000A0006BAAAABE000000803F072C7AA5BA6CC5D7
:1000B00090DA3B9365FC8BBC53F810FD3C56928361
:1000C0004DBD879D3AB63DCBC9BF5BBE73DA0FC944
:1000D0003F05A84CCDB2D44EB93836A9020C50B960
:1000E000918688083CA6AAAA2ABE000000803F0785
:1000F000634236B79BD8A71A39685618AEBAAB55C3
:100100008C1D3CB7CC5763BD6DEDFD753EF6177287
:1001100031BF000000803F08000000BE9224491259
:100120003EABAAAA2ABECDCCCC4C3E00000080BE7D
:10013000ABAAAAAA3E00000000BF000000803F005A
:1001400000000000084178D3BB4387D1133D190E4E
:100150003CC3BD4282AD2B3E68EC8276BED98FE1B6
:10016000A93E4C80EFFFBE01C4FF7F3F00000000AE
:10017000000011241FBECFEFD0E1DEBFCDBF11E0E4
:10018000A0E0B1E0E2E2F7E202C005900D92A237F2
:10019000B107D9F711E0A2E7B1E001C01D92AD3C73
:1001A000B107E1F70E940E0B0C948F130C94000022
:1001B00091B121E030E002C0220F331F8A95E2F7AF
:1001C000822F8095892381B9EEE7F0E08081282B8A
:1001D000208380917C008F7780937C0080917C00CD
:1001E000806480937C0080917A00846080937A00A0
:1001F00080917A00826080937A0080917A00816099
:1002000080937A0080917A00806880937A000895C4
:1002100091B121E030E002C0220F331F8A95E2F74E
:10022000922B91B9EEE7F0E080812095282320837E
:1002300010927900E8E7F0E01082118210820895B0
:1002400090917C00907E90937C0090917C00982B04
:1002500090937C0080917A00806480937A008091F2
:100260007A0086FDFCCF2091780030917900C90199
:1002700008950F931F938B0190912B009F7E909375
:100280002B0080630E94B104C80124E096958795F5
:100290002A95E1F70E94B104802F8295807F0E9409
:1002A000B10480912B00806180932B001F910F91EE
:1002B00008951F93182FCB01BA0120E030EC4CECCD
:1002C00054E40E944F110E94ED0F9B01AC01812F5D
:1002D000B9010E9439011F9108950E947E04809106
:1002E0002A00806180932A0080912B008F7E80936A
:1002F0002B008FE60E94B10480E00E94B10480E0F0
:100300000E94B10480912B00806180932B0008959E
:1003100020E030E040E050E020938E0130938F01E8
:10032000409390015093910120938A0130938B0167
:1003300040938C0150938D01209396013093970147
:100340004093980150939901209392013093930127
:10035000409394015093950160939A0170939B018F
:1003600080939C0190939D010895CF92DF92EF922C
:10037000FF920F931F938834C9F4409372015093F6
:10038000730160937401709375010093760110936B
:1003900077012093780130937901C0927A01D0924D
:1003A0007B01E0927C01F0927D011AC08C34C1F493
:1003B00040937E0150937F0160938001709381018F
:1003C000009382011093830120938401309385016F
:1003D000C0928601D0928701E0928801F092890153
:1003E0001F910F91FF90EF90DF90CF9008952F9283
:1003F0003F924F925F926F927F928F929F92AF92B5
:10040000BF92CF92DF92EF92FF920F931F93DF93F1
:10041000CF93CDB7DEB764970FB6F894DEBF0FBEAB
:10042000CDBF182F641B750B882777FD8095982FFB
:100430000E941B1069837A838B839C83183409F094
:10044000F0C0E0909201F09093010091940110911E
:10045000950120919A0130919B0140919C0150910E
:100460009D010E944F119B01AC01C801B7010E9480
:10047000B30E6093920170939301809394019093D3
:1004800095016091920170919301809194019091F6
:10049000950120E030E048EC52E40E944411181627
:1004A00064F480E090E0A8ECB2E480939201909331
:1004B0009301A0939401B093950160919201709182
:1004C0009301809194019091950120E030E048ECF7
:1004D00052EC0E94790F882364F480E090E0A8EC4D
:1004E000B2EC8093920190939301A0939401B09306
:1004F000950120908A0130908B0140908C015090A2
:100500008D0120919A0130919B0140919C01509165
:100510009D01298B3A8B4B8B5C8B89819A81AB81B6
:10052000BC8180938A0190938B01A0938C01B0933E
:100530008D016091720170917301809174019091AD
:100540007501A0907601B0907701C0907801D090AD
:100550007901609092017090930180909401909045
:10056000950120917A0130917B0140917C0150915D
:100570007D012D873E874F87588B29813A814B819A
:100580005C810E944F117B018C01C601B501A40161
:1005900093010E944F119B01AC01C801B7010E9459
:1005A000B30E7B018C0169817A818B819C81A201D0
:1005B00091010E94B20E29893A894B895C890E9477
:1005C000800F9B01AC016D857E858F8598890E9487
:1005D0004F119B01AC01C801B7010E94B30E0E94EC
:1005E000E80F7093A3016093A2018091A201909102
:1005F000A3018050904134F08FEF9FE09093A301CE
:100600008093A2018091A2019091A3018150904F0B
:100610000CF0FCC081E090EF9093A3018093A201C5
:10062000F5C01C3409F0F2C0E0909601F0909701FB
:10063000009198011091990120919A0130919B01AC
:1006400040919C0150919D0169817A818B819C81AF
:100650000E944F119B01AC01C801B7010E94B30E6B
:1006600060939601709397018093980190939901FC
:1006700060919601709197018091980190919901F4
:1006800020E030E048EC52E40E944411181664F473
:1006900080E090E0A8ECB2E48093960190939701FB
:1006A000A0939801B0939901609196017091970180
:1006B000809198019091990120E030E048EC52EC53
:1006C0000E94790F882364F480E090E0A8ECB2ECFB
:1006D0008093960190939701A0939801B09399010C
:1006E00020908E0130908F014090900150909101A8
:1006F00080919A0190919B01A0919C01B0919D01E4
:1007000089879A87AB87BC8729813A814B815C8135
:1007100020938E0130938F0140939001509391016B
:1007200060917E0170917F018091800190918101A3
:10073000A0908201B0908301C0908401D090850187
:100740006090960170909701809098019090990127
:100750002091860130918701409188015091890153
:100760002D833E834F83588729813A814B815C8159
:100770000E944F117B018C01C601B501A4019301B8
:100780000E944F119B01AC01C801B7010E94B30E3A
:100790007B018C0169817A818B819C81A20191010D
:1007A0000E94B20E29853A854B855C850E94800F98
:1007B0009B01AC016D817E818F8198850E944F11D4
:1007C0009B01AC01C801B7010E94B30E0E94E80F63
:1007D0007093A5016093A4018091A4019091A5015B
:1007E0008050904134F08FEF9FE09093A50180936B
:1007F000A4018091A4019091A5018150904F34F4FF
:1008000081E090EF9093A5018093A40164960FB6C8
:10081000F894DEBF0FBECDBFCF91DF911F910F9136
:10082000FF90EF90DF90CF90BF90AF909F908F9010
:100830007F906F905F904F903F902F9008951F9200
:100840000F920FB60F9211242F933F934F935F9304
:100850006F937F938F939F93AF93BF93EF93FF9388
:100860009091A7018091A6019817C0F01092A7015E
:1008700060919E0170919F014091BE015091BF0116
:1008800088E40E94F7016091A0017091A10140915C
:10089000BC015091BD018CE40E94F7018091A70139
:1008A0008F5F8093A701FF91EF91BF91AF919F91CF
:1008B0008F917F916F915F914F913F912F910F9009
:1008C0000FBE0F901F90189581E08093A6011092A3
:1008D000A70161E040E05AE50E94FA0B8091810097
:1008E0008B7F809381008091810082608093810062
:1008F000809181008E7F80938100089580912400F3
:10090000806880932400809124008062809324007A
:10091000809124008F7B809324008091240080614B
:100920008093240080912500806180932500809130
:100930004C00806480934C0080914C0080618093D7
:100940004C0080914C008E7F80934C0080914C0035
:10095000826080934C0080914D00816080934D00B7
:1009600008958EBD0DB407FEFDCF8EB508959B0191
:10097000AC01E0E0F1E080819181A281B381281790
:1009800039074A075B0749F0349681E0E433F807FA
:1009900091F720E032EC41E050E064E0220F331F99
:1009A000441F551F6A95D1F760E070E489E191E03A
:1009B0000E946D13C901DA010197A109B109292F1C
:1009C0003A2F4B2F55270196A11DB11D2093CD0025
:1009D00081508093CC0088E18093C9008EE08093A1
:1009E000CA000895982F8091C80085FFFCCF90938E
:1009F000CE0008958091C80087FFFCCF8091CE0083
:100A000008959C018091A8019091A90128173907A8
:100A1000BCF08091A8019091A901281B390BB90164
:100A2000882777FD8095982F0E941B1020E038E4DE
:100A300041E656E40E94B211AC01CB01DA0117C0C5
:100A40006091A8017091A901621B730B882777FD43
:100A50008095982F0E941B1020E038E441E656E470
:100A60000E94B2119B01AC01DA01C901B058BC016E
:100A7000CD010895AA2797FDA095BA2FBC01CD01FD
:100A80000E941B1020E03CE44EE457E40E94B211A7
:100A900008950F931F93883711F400E00EC0893733
:100AA00011F401E00AC08A3711F402E006C086376B
:100AB00019F020E030E01AC003E0589886E00E9468
:100AC000B104802F8295880F880F807C0E94B1042A
:100AD000082F10E00F701070102F002780E00E9488
:100AE000B104282F30E0202B312B589AC9011F91D7
:100AF0000F9108951F920F920FB60F9211242F930A
:100B00003F934F935F936F937F938F939F93AF9395
:100B1000BF93EF93FF939091B2018091B101981729
:100B200008F11092B20186E70E9449059093A9014D
:100B30008093A80188E70E9449059093AB018093B8
:100B4000AA0189E70E9449059093AD018093AC0109
:100B50008AE70E9449059093AF018093AE0181E03E
:100B60008093B0018091B2018F5F8093B201FF91B9
:100B7000EF91BF91AF919F918F917F916F915F9115
:100B80004F913F912F910F900FBE0F901F9018958E
:100B90001092B0010E947E04509A589A08951092C3
:100BA000B0010E947E04509A589A81E08093B1016E
:100BB0001092B20180E061E044EB50E00E94FA0B39
:100BC00080914500846080934500809145008D7F31
:100BD00080934500809145008E7F80934500089565
:100BE000883499F46091BE017091BF0180E090E07B
:100BF0000E94191020E030E04AE254E40E94B20E54
:100C000028E837E847E85EE319C08C3429F0E0E0D3
:100C100070E080E060E016C06091BC017091BD01A1
:100C200080E090E00E94191020E030E04CE853E4AE
:100C30000E94B20E22EB30E945E85EE30E944F11BC
:100C4000E62F692F2E2F372F482F562FB901CA01B3
:100C500008958834A9F4CB01BA012CE137EC41E7BF
:100C600050E40E944F1120E030E04AE254E40E9438
:100C7000B30E0E94ED0F70939F0160939E01089543
:100C80008C34A1F4CB01BA0125E535E545E750E404
:100C90000E944F1120E030E04CE853E40E94B30E74
:100CA0000E94ED0F7093A1016093A0010895883414
:100CB00099F460919E0170919F0180E090E00E9404
:100CC000191020E030E04AE254E40E94B20E28E815
:100CD00037E847E85EE319C08C3429F0E0E070E0C3
:100CE00080E060E016C06091A0017091A10180E0F9
:100CF00090E00E94191020E030E04CE853E40E949C
:100D0000B20E22EB30E945E85EE30E944F11E62F78
:100D1000692F2E2F372F482F562FB901CA0108955A
:100D2000AF92BF92CF92DF92EF92FF920F931F93F9
:100D3000DF93CF93CDB7DEB728970FB6F894DEBF19
:100D40000FBECDBF5B016C0179018A01CE01019616
:100D5000BE016B5F7F4FA60195010E94CC094981BE
:100D60005A816B817C818CE40E9429064D815E81D1
:100D70006F81788588E40E94290628960FB6F8943A
:100D8000DEBF0FBECDBFCF91DF911F910F91FF90BE
:100D9000EF90DF90CF90BF90AF900895CF93DF9307
:100DA000EB018C3491F477FD05C080E00E9439019D
:100DB00081E01FC080E060E070E00E94390166279A
:100DC00077276C1B7D0B81E016C08834B1F477FD6A
:100DD00008C082E060E070E00E94390183E0BE015B
:100DE0000AC0662777276C1B7D0B82E00E943901C1
:100DF00083E060E070E00E943901DF91CF910895B7
:100E0000EF92FF920F931F93E090A201F090A30145
:100E100088E40E94F00525E33AEF4EE85CE30E9487
:100E20004F110E947D0F0E94E80F04EF11E0CB01EB
:100E3000809FB001819F700D909F700D11246E0DE9
:100E40007F1D88E40E94CE06E090A401F090A501E9
:100E50008CE40E94F00525E33AEF4EE85CE30E9443
:100E60004F110E947D0F0E94E80FCB01809FB001BF
:100E7000819F700D909F700D11246E0D7F1D8CE46D
:100E80000E94CE061F910F91FF90EF9008958CE481
:100E900040E050E060E070E00E94290688E440E015
:100EA00050E060E070E00E94290602C00E94000746
:100EB00020919E0130919F018091BE019091BF01D0
:100EC0002817390799F72091A0013091A10180914D
:100ED000BC019091BD012817390741F70E946209B2
:100EE00008951F93182FCB01BA0120E030EF4FE790
:100EF00055E40E944F110E94E80F9B01AC01812F25
:100F0000B9010E94CE061F9108951F920F920FB64D
:100F10000F9211242F938F939F93EF93FF938091C0
:100F2000B301882321F120917C00277079F0E22F12
:100F3000F0E08091780090917900EE0FFF1FEF5460
:100F4000FE4F96838583273051F00DC08091780045
:100F5000909179009093C7018093C60104C080915D
:100F60007C00807E36C080917C008F5F32C0809193
:100F7000B401882309F443C020917C00277080913C
:100F8000B501821758F4E22FF0E08091780090913B
:100F90007900EE0FFF1FEF54FE4F0BC0E091B6013A
:100FA000F0E08091780090917900EE0FFF1FED54F2
:100FB000FE4F9683858380917C00807E80937C00A9
:100FC0008091B601281740F090917C008091B50186
:100FD000892B80937C001EC0E22FEF5F8091B401CB
:100FE00090E00E2E02C0959587950A94E2F780FF57
:100FF000F4CF80917C00E82BE0937C000BC08091C3
:101000007800909179009093C9018093C80181E0A4
:101010008093B701FF91EF919F918F912F910F9046
:101020000FBE0F901F9018950F931F93CF93DF93D0
:10103000982F882309F45FC0F89481E08093B3016E
:101040009093B401C0E0D0E0092F10E0C8010C2E4D
:1010500002C0959587950A94E2F780FF03C08C2F14
:101060000E94D8002196C830D10581F780917A007E
:10107000806280937A0080917B008E7F80937B00DA
:1010800080917B008D7F80937B0080917B008B7FA4
:1010900080937B0080917A00886080937A008091B1
:1010A0007C00807E80937C0020E001C02F5FC8011F
:1010B000022E02C0959587950A94E2F780FFF6CF3D
:1010C00080917C00822B80937C002093B50127E0E7
:1010D00001C02150C801022E02C0959587950A943F
:1010E000E2F780FFF6CF2093B60180917A0080640A
:1010F00080937A007894DF91CF911F910F9108959A
:101100001F93F89481E08093B3011092B40110E032
:10111000812F0E94D8001F5F1830D1F780917A008C
:10112000806280937A0080917B008E7F80937B0029
:1011300080917B008D7F80937B0080917B008B7FF3
:1011400080937B0080917A00886080937A00809100
:101150007C00807E80937C0080917A008064809304
:101160007A0078941F9108951F93182FF894109285
:10117000B3011092B4010E94D80080917A0080627D
:1011800080937A0080917B008E7F80937B0080919A
:101190007B008D7F80937B0080917B008B7F809391
:1011A0007B0080917A00886080937A00ECE7F0E021
:1011B0008081807E80838081812B808380917A00F2
:1011C000806480937A0078941F910895F89487B191
:1011D000887F87B980916D00806880936D008091D1
:1011E0006D00806480936D0080916D0088608093B5
:1011F0006D0080916D00846080936D008091680027
:1012000084608093680080913B00846080933B0001
:10121000789408951F93CF93DF93EC018834910560
:1012200031F08C34910519F02FEF3FEF2FC098B1BA
:10123000C834D10511F08FED01C08FEE892388B934
:1012400098B1C834D10511F08FED01C08FEE89231C
:1012500088B980E60E94B1048FEF0E94B104182F74
:101260008FEF0E94B104282F98B1C834D10511F036
:1012700080E201C080E1892B88B9912F80E030E0C5
:10128000822B932B22273327281B390BC901DF918F
:10129000CF911F9108951F93182F98B1883411F0A2
:1012A0008FED01C08FEE892388B980E20E94B104DE
:1012B00098B1183411F080E201C080E1892B88B91F
:1012C0001F91089588E40E944B098CE40E944B0909
:1012D00008951F93182F0E947E0497B1183411F0BF
:1012E00080E201C080E1892B87B998B1183411F0F0
:1012F00080E201C080E1892B88B998B1183411F0DF
:101300008FED01C08FEE892388B980E20E94B1047D
:1013100098B1183411F080E201C080E1892B88B9BE
:1013200098B1183411F08FED01C08FEE892388B980
:1013300088E80E94B10481E00E94B10498B1183499
:1013400011F080E201C080E1892B88B998B118348E
:1013500011F08FED01C08FEE892388B980E90E94DA
:10136000B10482E00E94B10498B1183411F080E217
:1013700001C080E1892B88B91F91089588E40E94FB
:1013800069098CE40E94690908951092CA011092BB
:10139000CB011092CC0108952F923F924F925F9211
:1013A0006F927F928F929F92AF92BF92CF92DF9275
:1013B000EF92FF920F931F931C012B0139014A01F9
:1013C000CA01B9010E944F115B016C01C801B7014C
:1013D000A80197010E944F119B01AC01C601B50104
:1013E0000E94B30E20E030E040E856E40E94B20EC6
:1013F00020E030E942E256E40E94B20E20E030E004
:101400004CEC56E40E94800F0E94A40E5B016C011C
:10141000F201608371838283938317FB109517F920
:101420001095C801B701A40193010E94260F9B01EA
:10143000AC01C601B5010E94B20EF1016083718357
:1014400082839383F201608171818281938121EE95
:101450003EE245E652E40E944F11F201608371833F
:1014600082839383F101608171818281938121EE76
:101470003EE245E652E40E944F11F1016083718320
:10148000828393831F910F91FF90EF90DF90CF9015
:10149000BF90AF909F908F907F906F905F904F9094
:1014A0003F902F9008952F923F924F925F926F92AC
:1014B0007F928F929F92AF92BF92CF92DF92EF92E4
:1014C000FF920F931F93DF93CF9300D000D0CDB73F
:1014D000DEB79C838B837A83698339014A01CA0111
:1014E000B90125E33AEF4EE85CE30E944F115B013E
:1014F0006C01C6010E947D0F1B012C01C401B301C8
:10150000A80197010E94B30E25E33AEF4EE85CE391
:101510000E944F117B018C01C8010E947D0F3B018D
:101520004C01C201B10120E030E040E053E40E94F0
:101530004F111B012C01C401B30120E030E04CEC41
:1015400052E40E944F119B01AC01C201B1010E9403
:10155000B30EEB81FC816083718382839383B50139
:10156000C6010E94FE115B016C01B701C8010E9417
:10157000FE117B018C01C601B50120E030E040E0A6
:1015800053E40E944F115B016C01C801B70120E0D8
:1015900030E04CEC52E40E944F119B01AC01C601BB
:1015A000B5010E94B30EE981FA8160837183828361
:1015B00093830F900F900F900F90CF91DF911F9119
:1015C0000F91FF90EF90DF90CF90BF90AF909F90E2
:1015D0008F907F906F905F904F903F902F900895E5
:1015E0001F920F920FB60F9211248F939F93909199
:1015F000CB018091CA01981728F01092CB0181E0AD
:101600008093CC018091CB018F5F8093CB019F9120
:101610008F910F900FBE0F901F901895CF92DF9271
:10162000EF92FF920F931F9360E072EC81E090E0E5
:101630000E94B7040E94C50988E391E00E94850ECC
:101640000E946D01809127008F77809327006AE0C8
:1016500077ED83E29CE30E9488018CE00E941408ED
:1016600088E440E050E060EF71E400E010E020EA40
:1016700030E40F2EFAE9CF2EF9E9DF2EF9E9EF2E4B
:10168000FFE3FF2EF02D0E94B5018CE440E050E016
:1016900064E372E400E010E020E83FE30F2EFDEC8D
:1016A000CF2EFCECDF2EFCE4EF2EFEE3FF2EF02D20
:1016B0000E94B5018CE440E050E060E070E00E94E0
:1016C000290688E440E050E060E070E00E942906CE
:1016D0000E94640483E08093CA011092CB0182E0EF
:1016E00061E040EF50E00E94FA0B8091B10084600D
:1016F0008093B1008091B10082608093B1008091AD
:10170000B1008E7F8093B1000E94BE090E94C8057F
:1017100002C00E9400078091260087FDFACF02C018
:101720000E9400078091260087FFFACF88E440E0FE
:1017300050E064EB72E40E9429060E940007809149
:10174000CC01882309F44BC01092CC0188E490E0CE
:101750000E940A09AA2797FDA095BA2FBC01CD01C6
:101760000E944F0D83E491E00E942D0E6091BE0116
:101770007091BF0180E090E00E948D0D83E491E0C4
:101780000E942D0E88E70E944905AA2797FDA09583
:10179000BA2FBC01CD010E948D0D83E491E00E941F
:1017A0002D0E89E70E944905AA2797FDA095BA2F1B
:1017B000BC01CD010E948D0D83E491E00E942D0EAD
:1017C0008AE70E944905AA2797FDA095BA2FBC0178
:1017D000CD010E948D0D85E491E00E94850E8091DF
:1017E000260087FDAACF86E491E00E94850E0E9424
:1017F0004707A3CF982FF894813009F1813020F06A
:10180000823009F055C039C016BC809145008B7FED
:1018100080934500809145008D7F809345008091A5
:10182000450081608093450080916E0081608093C7
:101830006E008091350081608093350039C0109230
:10184000850010928400809181008B7F80938100BD
:10185000809181008D7F80938100809181008160E3
:101860008093810080916F00816080936F008091F0
:1018700036008160809336001BC01092B2008091C8
:10188000B1008B7F8093B1008091B1008D7F8093F8
:10189000B1008091B10081608093B10080917000AF
:1018A0008160809370008091370081608093370061
:1018B000613009F061C0913009F1913020F092302F
:1018C00009F05AC03EC0809144008E7F809344004E
:1018D0008091440082608093440080914500877F1E
:1018E0008093450047BD80916E00826080936E00BA
:1018F000809135008260809335003EC080918000E9
:101900008E7F80938000809180008D7F8093800007
:1019100080918100886080938100809181008F7E1A
:1019200080938100509389004093880080916F00DC
:10193000826080936F0080913600826080933600D1
:101940001BC08091B0008E7F8093B0008091B0006A
:1019500082608093B0008091B100877F8093B10056
:101960004093B300809170008260809370008091FA
:10197000370082608093370078940895813039F081
:10198000813018F0823051F407C067BD089570931C
:1019900089006093880008956093B300089581E002
:1019A000809371010895109271010895E82FF0E07D
:1019B000EF70F070EF59FE4F8081089582958F701F
:1019C000E1E6F1E0E80FF11D808108954F925F920A
:1019D0006F927F928F929F92AF92BF92CF92DF923F
:1019E000EF92FF920F931F93CF93DF933B014C0134
:1019F000EA0180917101882309F440C061147104E7
:101A000081049104C1F15524A12C8AECB82E8AE9F5
:101A1000C82E8BE3D82E4424C401B301A60195013E
:101A20000E946D1379018A01E114F1040105110589
:101A300011F4442079F08E2D805D8993C801B7019F
:101A4000A60195010E944E13661A770A880A990A20
:101A50004424439453948AE0581679F0C601B501A2
:101A60002AE030E040E050E00E946D13C901DA0145
:101A70005C016D01D1CF80E389931882DF91CF9112
:101A80001F910F91FF90EF90DF90CF90BF90AF909C
:101A90009F908F907F906F905F904F900895EF92FE
:101AA000FF920F931F93DF93CF93CDB7DEB72B97A2
:101AB0000FB6F894DEBF0FBECDBF7B018C018091C5
:101AC00071018823E9F017FF0BC010950095F09481
:101AD000E094E11CF11C011D111D8DE20E94F20435
:101AE000C801B7018E010F5F1F4FA8010E94E60CCD
:101AF00002C00E94F204F80181918F018823C9F786
:101B00002B960FB6F894DEBF0FBECDBFCF91DF91FD
:101B10001F910F91FF90EF9008950F931F93DF9304
:101B2000CF93CDB7DEB72B970FB6F894DEBF0FBEBD
:101B3000CDBF9B01AC0180917101882381F0CA0166
:101B4000B9018E010F5F1F4FA8010E94E60C02C071
:101B50000E94F204F80181918F018823C9F72B9626
:101B60000FB6F894DEBF0FBECDBFCF91DF911F91AE
:101B70000F910895AF92BF92CF92DF92EF92FF92B2
:101B80000F931F935B016C0180917101882309F40D
:101B90005BC0C601B50120E030E040E85FEB0E9489
:101BA000441118166CF4C601B50120E030E040E0A5
:101BB00050E00E94790F88231CF48DE20E94F20409
:101BC000C601B5010E94E80F7B018C01C8010E948B
:101BD0004F0D8EE20E94F204C601B50120E030E014
:101BE0004AE754E40E944F110E94E80F5B016C0128
:101BF000B701C80128EE33E040E050E00E944E13E8
:101C0000A61AB70AC80AD90AD7FE08C0D094C09449
:101C1000B094A094A11CB11CC11CD11C84E6A816D0
:101C2000B104C104D10464F480E30E94F2048AE0A8
:101C3000A816B104C104D1041CF480E30E94F2048C
:101C4000C601B5010E948D0D1F910F91FF90EF907D
:101C5000DF90CF90BF90AF900895CF93DF939C011A
:101C600080917101882339F0E90102C00E94F204D9
:101C700089918823D9F7DF91CF910895982F80918A
:101C80007101882319F0892F0E94F2040895CF92E0
:101C9000DF92EF92FF920F931F93CF93DF936C012C
:101CA0008B018DE491E00E942D0EB80180E090E060
:101CB0000E948D0D8CE591E00E942D0EC0E0D0E0D9
:101CC00078010894E108F10810C0F601EC0FFD1F3F
:101CD000608170E080E090E00E948D0DCE15DF0500
:101CE00018F48CE20E943E0E2196C017D10768F3CB
:101CF0008FE591E00E942D0EDF91CF911F910F9102
:101D0000FF90EF90DF90CF9008950F931F93CF93A4
:101D1000DF93182F092F80917101882381F08AE0C9
:101D20000E94F2048DE00E94F204812F902F9C010A
:101D3000E90102C00E94F20489918823D9F7DF915A
:101D4000CF911F910F9108959F939F77AFD10F90DF
:101D500000203AF49058A2EA2AED3FE049E450E42A
:101D600013D047C25058BB27AA270ED042C20BD26D
:101D700030F010D220F031F49F3F11F41EF4DBC19B
:101D80000EF4E095E7FBD1C1E92F55D280F3BA17E5
:101D9000620773078407950718F071F49EF56DC20A
:101DA0000EF4E0950B2EBA2FA02D0B01B901900176
:101DB0000C01CA01A0011124FF27591B99F0593FBA
:101DC00050F4503E68F11A16F040A22F232F342F02
:101DD0004427585FF3CF469537952795A795F04050
:101DE0005395C9F77EF41F16BA0B620B730B840B65
:101DF000BAF09150A1F0FF0FBB1F661F771F881F1D
:101E0000C2F70EC0BA0F621F731F841F48F4879574
:101E100077956795B795F7959E3F08F0B3CF939563
:101E2000880F08F09927EE0F979587950895ABD105
:101E300058F080E891E009F49EEFACD128F040E83A
:101E400051E059F45EEF09C076C117C2E92FE0787E
:101E5000F2D168F3092E052AC1F326173707480780
:101E6000590738F00E2E07F8E02569F0E025E06408
:101E70000AC0EF6307F8009407FADB01B9019D017E
:101E8000DC01CA01AD01EF934AD0B3D10AD05F9112
:101E9000552331F02BED3FE049E450FD49EC63CF91
:101EA0000895DF93DD27B92FBF7740E85FE316166B
:101EB000170648075B0710F4D92FEAD19F938F9339
:101EC0007F936F93E3D2ECE7F0E038D192D12F917A
:101ED0003F914F915F91EFD1DD2349F09058A2EAF5
:101EE0002AED3FE049EC5FE3D0785D274DDFDF91DD
:101EF00080C1F7D008F481E0089554D1E3958AC1F8
:101F00000CD077C147D140F03ED130F021F45F3F93
:101F100019F00BC15111B2C10EC18DD198F39923A3
:101F2000C9F35523B1F3951B550BBB27AA2762179D
:101F30007307840738F09F5F5F4F220F331F441FE2
:101F4000AA1FA9F333D00E2E3AF0E0E830D091501A
:101F50005040E695001CCAF729D0FE2F27D0660F07
:101F6000771F881FBB1F261737074807AB07B0E846
:101F700009F0BB0B802DBF01FF2793585F4F2AF05C
:101F80009E3F510568F0D1C079C15F3FECF3983EA8
:101F9000DCF3869577956795B795F7959F5FC9F7B9
:101FA000880F911D9695879597F90895E1E0660F42
:101FB000771F881FBB1F621773078407BA0720F0BB
:101FC000621B730B840BBA0BEE1F88F7E095089524
:101FD00004D06894B11152C1089535D188F09F574B
:101FE00090F0B92F9927B751A0F0D1F0660F771F65
:101FF000881F991F1AF0BA95C9F712C0B13081F045
:102000003CD1B1E0089539C1672F782F8827B85F98
:1020100039F0B93FCCF3869577956795B395D9F7A5
:102020003EF490958095709561957F4F8F4F9F4FAF
:102030000895E89409C097FB3EF4909580957095BB
:1020400061957F4F8F4F9F4F9923A9F0F92F96E904
:10205000BB279395F695879577956795B795F11179
:10206000F8CFFAF4BB0F11F460FF1BC06F5F7F4F16
:102070008F4F9F4F16C0882311F096E911C0772328
:1020800021F09EE8872F762F05C0662371F096E831
:10209000862F70E060E02AF09A95660F771F881F00
:1020A000DAF7880F9695879597F90895DF93CF9380
:1020B0001F930F938B01EC01E9EAF0E03FD099D038
:1020C0009801AE018B01EC0160E070E080E89FE3D5
:1020D00049DE9ED19801AE010F911F91CF91DF9102
:1020E000EAC0990F0008550FAA0BE0E8FEEF16169C
:1020F0001706E807F907C0F012161306E407F507FC
:1021000098F0621B730B840B950B39F40A2661F06F
:10211000232B242B252B21F408950A2609F4A14012
:10212000A6958FEF811D811D089597F99F6780E81F
:1021300070E060E008959FEF80EC0895DF93CF9307
:102140001F930F93FF92EF92DF927B018C016894B3
:1021500005C0DA2EEF01AFD0FE01E894A5912591DC
:10216000359145915591AEF3EF010EDEFE019701D9
:10217000A801DA9479F7DF90EF90FF900F911F910B
:10218000CF91DF91089500240A94161617061806B9
:102190000906089500240A9412161306140605066B
:1021A0000895C9CF50D0E8F3E894E0E0BB279F57EB
:1021B000F0F02AED3FE049EC06C0EE0FBB0F661FC2
:1021C000771F881F28F0B23A62077307840728F048
:1021D000B25A620B730B840BE3959A9572F78038B1
:1021E00030F49A95BB0F661F771F881FD2F790486F
:1021F00083C1092E0394000C11F4882352F0BB0F05
:1022000040F4BF2B11F460FF04C06F5F7F4F8F4F0E
:102210009F4F0895EF93E0FF06C0A2EA2AED3FE04A
:1022200049EC5FEBB1DDE5DF0F90039401FC9058C2
:10223000E1EDF0E074C157FD9058440F551F59F07F
:102240005F3F71F04795880F97FB991F61F09F3FA3
:1022500079F087950895121613061406551FF2CFCC
:102260004695F1DF08C0161617061806991FF1CF1C
:1022700086957105610508940895E894BB27662743
:102280007727CB0197F908952CDF08F48FEF089595
:102290009B01AC0160E070E080E89FE331CE0BD0A1
:1022A000A8CF71DF28F076DF18F0952309F03DCF35
:1022B00042CF1124E3CFBFDFA0F3959FD1F3950F59
:1022C00050E0551F629FF001729FBB27F00DB11DBA
:1022D000639FAA27F00DB11DAA1F649F6627B00D4A
:1022E000A11D661F829F2227B00DA11D621F739F33
:1022F000B00DA11D621F839FA00D611D221F749F41
:102300003327A00D611D231F849F600D211D822F87
:10231000762F6A2F11249F5750408AF0E1F08823CE
:102320004AF0EE0FFF1FBB1F661F771F881F9150DB
:102330005040A9F79E3F510570F0F7CE9FCF5F3F09
:10234000ECF3983EDCF3869577956795B795F7950E
:10235000E7959F5FC1F7FE2B880F911D9695879596
:1023600097F90895FA01EE0FFF1F30962105310508
:1023700099F16115710561F48038BFE39B0749F15C
:1023800068949038810561F08038BFEF9B0741F079
:10239000992342F5FF3FE1053105210511F1E8944C
:1023A0000894E795D901AA2329F4AB2FBE2FF85F33
:1023B000D0F310C0FF5F70F4A695E0F7F73950F046
:1023C00019F0FF3A38F49F779F930CD00F9007FCD9
:1023D000905808953EF0AFCE60E070E080E89FE353
:1023E00008954FE79F775F934F933F932F93E3D0E9
:1023F0002F913F914F915F9152DF50C09F93D2DE5A
:102400000F9007FCEE5F06CF11F40EF494CE72C06D
:102410001ADFD0F39923D9F3CEF39F57550B87FFDB
:1024200077D00024A0E640EA900180585695979511
:1024300028F4805C660F771F881F20F02617370767
:10244000480730F4621B730B840B202931294A2B77
:10245000A69517940794202531254A2758F7660F2B
:10246000771F881F20F026173707480730F4620BC4
:10247000730B840B200D311D411DA09581F7B9010F
:10248000842F9158880F9695879508959B01AC01EC
:1024900006CF19F40EF049CEF0CE4DCED4DEC8F3FF
:1024A0009638C0F707F80F92E8942BE33AEA48EB26
:1024B0005FE703DF0F920F920F924DB75EB70F9257
:1024C000BAD0EFEEF0E03ADE4F915F91EF91FF91DD
:1024D000E595EE1FFF1F49F0FE57E0684427EE0F19
:1024E000441FFA95E1F74195550B2CD00F9007FE4C
:1024F000CFCE08959F3F31F0915020F48795779586
:102500006795B795880F911D9695879597F90895CA
:1025100091505040660F771F881FD2F708959F9300
:102520008F937F936F93FF93EF939B01AC01B7DE83
:10253000EF91FF9103DE2F913F914F915F91AFCECD
:10254000F4CDD8CF80DEE8F39923D9F3940F511D51
:10255000BBF39150504094F059F0882332F0660F4D
:10256000771F881F91505040C1F79E3F510544F797
:10257000880F911D9695879597F908955F3FACF068
:10258000983E9CF0BB27869577956795B79508F49C
:10259000B1609395C1F7BB0F58F711F460FFE8CF16
:1025A0006F5F7F4F8F4F9F4FE3CF68CE0EF0A2CF6C
:1025B000C2CD6894BACD47DEC8F39923D1F3C6F3F0
:1025C000DF93CF931F930F93FF92C92FDD278823AB
:1025D0002AF02197660F771F881FDAF720E030E096
:1025E00040E85FEB9FE3883920F0803E30F0219691
:1025F0008F77B9DBE7E1F1E003C0B5DBE4E4F1E0BC
:102600009DDD8B01BE01EC01FB2E6F5771097595A5
:10261000771F880B990B0FDD28E132E741E35FE379
:102620004ADEAF2D9801AE01FF900F911F91CF911F
:10263000DF91AADBDECDFA01DC01AA0FBB1F9B01F3
:10264000AC01BF5728F422273327442750781FC0F6
:10265000B75188F4AB2F0024469537952795011C78
:10266000A395D2F3002069F0220F331F441FB395C6
:10267000DAF30DD077CB61307105A0E88A07B9464F
:1026800030F49B01AC016627772788279078309635
:1026900021F020833183428353830895629FD001C8
:1026A000739FF001829FE00DF11D649FE00DF11D0D
:1026B000929FF00D839FF00D749FF00D659FF00DBC
:1026C0009927729FB00DE11DF91F639FB00DE11DA9
:1026D000F91FBD01CF0111240895A1E21A2EAA1BF2
:1026E000BB1BFD010DC0AA1FBB1FEE1FFF1FA217C2
:1026F000B307E407F50720F0A21BB30BE40BF50BBF
:10270000661F771F881F991F1A9469F76095709547
:10271000809590959B01AC01BD01CF010895F8947F
:02272000FFCFE9
:102722006E000000960000002C010000B0040000C2
:1027320060090000C012000080250000004B00006C
:102742000096000000E1000000C2010000840300C6
:102752000008070000100E0043686970205265737C
:10276200657400090000686F6D696E67002053741C
:102772007265616D3A2073697A653D00205B005D88
:1027820000303132333435363738394142434445EB
:022792004601FE
:00000001FF
